{"abi":[{"type":"function","name":"entryPoint","inputs":[],"outputs":[{"name":"","type":"address","internalType":"address"}],"stateMutability":"view"},{"type":"error","name":"AccountAccessUnauthorized","inputs":[]}],"bytecode":{"object":"0x6080604052348015600f57600080fd5b50608680601d6000396000f3fe6080604052348015600f57600080fd5b506004361060285760003560e01c8063b0d691fe14602d575b600080fd5b604080516f71727de22e5e9d8baf0edac6f37da032815290519081900360200190f3fea26469706673582212205426fe967ba1a9b7f3d52231ffc07cce5e4a692ebdd1b6de3fbfa53d4043a70964736f6c63430008180033","linkReferences":{}},"methodIdentifiers":{"entryPoint()":"b0d691fe"},"id":62}