{"abi":[{"type":"fallback","stateMutability":"payable"},{"type":"receive","stateMutability":"payable"},{"type":"function","name":"accountId","inputs":[],"outputs":[{"name":"","type":"string","internalType":"string"}],"stateMutability":"view"},{"type":"function","name":"entryPoint","inputs":[],"outputs":[{"name":"","type":"address","internalType":"address"}],"stateMutability":"view"},{"type":"function","name":"execute","inputs":[{"name":"mode","type":"bytes32","internalType":"ModeCode"},{"name":"executionCalldata","type":"bytes","internalType":"bytes"}],"outputs":[],"stateMutability":"payable"},{"type":"function","name":"executeFromExecutor","inputs":[{"name":"mode","type":"bytes32","internalType":"ModeCode"},{"name":"executionCalldata","type":"bytes","internalType":"bytes"}],"outputs":[{"name":"returnData","type":"bytes[]","internalType":"bytes[]"}],"stateMutability":"payable"},{"type":"function","name":"executeUserOp","inputs":[{"name":"userOp","type":"tuple","internalType":"struct PackedUserOperation","components":[{"name":"sender","type":"address","internalType":"address"},{"name":"nonce","type":"uint256","internalType":"uint256"},{"name":"initCode","type":"bytes","internalType":"bytes"},{"name":"callData","type":"bytes","internalType":"bytes"},{"name":"accountGasLimits","type":"bytes32","internalType":"bytes32"},{"name":"preVerificationGas","type":"uint256","internalType":"uint256"},{"name":"gasFees","type":"bytes32","internalType":"bytes32"},{"name":"paymasterAndData","type":"bytes","internalType":"bytes"},{"name":"signature","type":"bytes","internalType":"bytes"}]}],"outputs":[],"stateMutability":"payable"},{"type":"function","name":"getActiveFallbackHandler","inputs":[],"outputs":[{"name":"","type":"address","internalType":"address"}],"stateMutability":"view"},{"type":"function","name":"getActiveHook","inputs":[],"outputs":[{"name":"hook","type":"address","internalType":"address"}],"stateMutability":"view"},{"type":"function","name":"getExecutorsPaginated","inputs":[{"name":"cursor","type":"address","internalType":"address"},{"name":"size","type":"uint256","internalType":"uint256"}],"outputs":[{"name":"array","type":"address[]","internalType":"address[]"},{"name":"next","type":"address","internalType":"address"}],"stateMutability":"view"},{"type":"function","name":"getValidatorPaginated","inputs":[{"name":"cursor","type":"address","internalType":"address"},{"name":"size","type":"uint256","internalType":"uint256"}],"outputs":[{"name":"array","type":"address[]","internalType":"address[]"},{"name":"next","type":"address","internalType":"address"}],"stateMutability":"view"},{"type":"function","name":"initializeAccount","inputs":[{"name":"data","type":"bytes","internalType":"bytes"}],"outputs":[],"stateMutability":"payable"},{"type":"function","name":"installModule","inputs":[{"name":"moduleTypeId","type":"uint256","internalType":"uint256"},{"name":"module","type":"address","internalType":"address"},{"name":"initData","type":"bytes","internalType":"bytes"}],"outputs":[],"stateMutability":"payable"},{"type":"function","name":"isModuleInstalled","inputs":[{"name":"moduleTypeId","type":"uint256","internalType":"uint256"},{"name":"module","type":"address","internalType":"address"},{"name":"additionalContext","type":"bytes","internalType":"bytes"}],"outputs":[{"name":"","type":"bool","internalType":"bool"}],"stateMutability":"view"},{"type":"function","name":"isValidSignature","inputs":[{"name":"hash","type":"bytes32","internalType":"bytes32"},{"name":"data","type":"bytes","internalType":"bytes"}],"outputs":[{"name":"","type":"bytes4","internalType":"bytes4"}],"stateMutability":"view"},{"type":"function","name":"supportsExecutionMode","inputs":[{"name":"mode","type":"bytes32","internalType":"ModeCode"}],"outputs":[{"name":"isSupported","type":"bool","internalType":"bool"}],"stateMutability":"view"},{"type":"function","name":"supportsModule","inputs":[{"name":"modulTypeId","type":"uint256","internalType":"uint256"}],"outputs":[{"name":"","type":"bool","internalType":"bool"}],"stateMutability":"view"},{"type":"function","name":"uninstallModule","inputs":[{"name":"moduleTypeId","type":"uint256","internalType":"uint256"},{"name":"module","type":"address","internalType":"address"},{"name":"deInitData","type":"bytes","internalType":"bytes"}],"outputs":[],"stateMutability":"payable"},{"type":"function","name":"validateUserOp","inputs":[{"name":"userOp","type":"tuple","internalType":"struct PackedUserOperation","components":[{"name":"sender","type":"address","internalType":"address"},{"name":"nonce","type":"uint256","internalType":"uint256"},{"name":"initCode","type":"bytes","internalType":"bytes"},{"name":"callData","type":"bytes","internalType":"bytes"},{"name":"accountGasLimits","type":"bytes32","internalType":"bytes32"},{"name":"preVerificationGas","type":"uint256","internalType":"uint256"},{"name":"gasFees","type":"bytes32","internalType":"bytes32"},{"name":"paymasterAndData","type":"bytes","internalType":"bytes"},{"name":"signature","type":"bytes","internalType":"bytes"}]},{"name":"userOpHash","type":"bytes32","internalType":"bytes32"},{"name":"missingAccountFunds","type":"uint256","internalType":"uint256"}],"outputs":[{"name":"validSignature","type":"uint256","internalType":"uint256"}],"stateMutability":"payable"},{"type":"event","name":"ModuleInstalled","inputs":[{"name":"moduleTypeId","type":"uint256","indexed":false,"internalType":"uint256"},{"name":"module","type":"address","indexed":false,"internalType":"address"}],"anonymous":false},{"type":"event","name":"ModuleUninstalled","inputs":[{"name":"moduleTypeId","type":"uint256","indexed":false,"internalType":"uint256"},{"name":"module","type":"address","indexed":false,"internalType":"address"}],"anonymous":false},{"type":"event","name":"TryExecuteUnsuccessful","inputs":[{"name":"batchExecutionindex","type":"uint256","indexed":false,"internalType":"uint256"},{"name":"result","type":"bytes","indexed":false,"internalType":"bytes"}],"anonymous":false},{"type":"error","name":"AccountAccessUnauthorized","inputs":[]},{"type":"error","name":"AccountInitializationFailed","inputs":[]},{"type":"error","name":"CannotRemoveLastValidator","inputs":[]},{"type":"error","name":"ExecutionFailed","inputs":[]},{"type":"error","name":"HookAlreadyInstalled","inputs":[{"name":"currentHook","type":"address","internalType":"address"}]},{"type":"error","name":"HookPostCheckFailed","inputs":[]},{"type":"error","name":"InvalidModule","inputs":[{"name":"module","type":"address","internalType":"address"}]},{"type":"error","name":"LinkedList_AlreadyInitialized","inputs":[]},{"type":"error","name":"LinkedList_EntryAlreadyInList","inputs":[{"name":"entry","type":"address","internalType":"address"}]},{"type":"error","name":"LinkedList_InvalidEntry","inputs":[{"name":"entry","type":"address","internalType":"address"}]},{"type":"error","name":"LinkedList_InvalidPage","inputs":[]},{"type":"error","name":"UnsupportedCallType","inputs":[{"name":"callType","type":"bytes1","internalType":"CallType"}]},{"type":"error","name":"UnsupportedExecType","inputs":[{"name":"execType","type":"bytes1","internalType":"ExecType"}]},{"type":"error","name":"UnsupportedModuleType","inputs":[{"name":"moduleTypeId","type":"uint256","internalType":"uint256"}]}],"bytecode":{"object":"0x608060405234801561001057600080fd5b50612988806100206000396000f3fe6080604052600436106101025760003560e01c80639517e29f11610095578063d03c791411610064578063d03c79141461037b578063d691c9641461039b578063e9ae5c53146103bb578063ea5f61d0146103ce578063f2dc691d146103ee57610109565b80639517e29f146102e65780639cfd7cff146102f9578063a71763a814610345578063b0d691fe1461035857610109565b80634b6a1419116100d15780634b6a14191461026557806372aea6541461027a578063855713681461028d5780638acf4c6a146102bb57610109565b80630a664dba146101a9578063112d3a7d146101db5780631626ba7e1461020b57806319822f7c1461024457610109565b3661010957005b60003560e01c63bc197c81811463f23a6e6182141763150b7a028214171561013557806020526020603cf35b506000805160206128d3833981519152546001600160a01b03168061015957600080fd5b60408051368101909152366000823760408051601481019091523360601b9052600080366014018382865af190506101973d60408051918201905290565b3d6000823e816101a5573d81fd5b3d81f35b3480156101b557600080fd5b506101be61040e565b6040516001600160a01b0390911681526020015b60405180910390f35b3480156101e757600080fd5b506101fb6101f6366004612093565b61042b565b60405190151581526020016101d2565b34801561021757600080fd5b5061022b6102263660046120ee565b61049e565b6040516001600160e01b031990911681526020016101d2565b610257610252366004612152565b610579565b6040519081526020016101d2565b61027861027336600461219f565b61062f565b005b6102786102883660046121e0565b6106b9565b34801561029957600080fd5b506102ad6102a8366004612214565b610799565b6040516101d2929190612240565b3480156102c757600080fd5b506000805160206128d3833981519152546001600160a01b03166101be565b6102786102f4366004612093565b6107c4565b34801561030557600080fd5b50604080518082018252601b81527f754d53412e616476616e6365642f77697468486f6f6b2e76302e310000000000602082015290516101d291906122f3565b610278610353366004612093565b6108b3565b34801561036457600080fd5b506f71727de22e5e9d8baf0edac6f37da0326101be565b34801561038757600080fd5b506101fb610396366004612306565b61097c565b6103ae6103a93660046120ee565b610a1b565b6040516101d2919061231f565b6102786103c93660046120ee565b611072565b3480156103da57600080fd5b506102ad6103e9366004612214565b6114e0565b3480156103fa57600080fd5b506101fb610409366004612306565b6114fe565b60006104266000805160206129138339815191525490565b905090565b6000600185036104455761043e8461154d565b9050610496565b600285036104565761043e8461156f565b60038503610481576000805160206128d3833981519152546001600160a01b0380861691161461043e565b600485036104925761043e8461158a565b5060005b949350505050565b6000806104ae6014828587612383565b6104b7916123ad565b60601c90506104c58161154d565b6104f257604051635c93ff2f60e11b81526001600160a01b03821660048201526024015b60405180910390fd5b6001600160a01b03811663f551e2ee3387610510876014818b612383565b6040518563ffffffff1660e01b815260040161052f9493929190612409565b602060405180830381865afa15801561054c573d6000803e3d6000fd5b505050506040513d601f19601f82011682018060405250810190610570919061243b565b95945050505050565b6000816020850135606081901c906105908261154d565b61059f57600193505050610615565b604051639700320360e01b81526001600160a01b038316906397003203906105cd908a908a906004016124aa565b6020604051808303816000875af11580156105ec573d6000803e3d6000fd5b505050506040513d601f19601f8201168201806040525081019061061091906125a9565b935050505b80156106275760003860003884335af1505b509392505050565b6106376115bc565b6000806106468385018561262f565b915091506000826001600160a01b03168260405161066491906126c1565b600060405180830381855af49150503d806000811461069f576040519150601f19603f3d011682016040523d82523d6000602084013e6106a4565b606091505b50509050806106b257600080fd5b5050505050565b336f71727de22e5e9d8baf0edac6f37da03214806106d657503330145b6106f357604051635629665f60e11b815260040160405180910390fd5b36600061070360608401846126dd565b610711916004908290612383565b915091506000306001600160a01b03168383604051610731929190612723565b600060405180830381855af49150503d806000811461076c576040519150601f19603f3d011682016040523d82523d6000602084013e610771565b606091505b505090508061079357604051632b3f6d1160e21b815260040160405180910390fd5b50505050565b606060006000805160206129338339815191526107b78186866115ee565b92509250505b9250929050565b336f71727de22e5e9d8baf0edac6f37da03214806107e157503330145b6107fe57604051635629665f60e11b815260040160405180910390fd5b600184036108165761081183838361178a565b61086b565b6002840361082957610811838383611809565b6003840361083c57610811838383611822565b6004840361084f576108118383836118ca565b60405163041c38b360e41b8152600481018590526024016104e9565b604080518581526001600160a01b03851660208201527fd21d0b289f126c4b473ea641963e766833c2f13866e4ff480abd787c100ef12391015b60405180910390a150505050565b336f71727de22e5e9d8baf0edac6f37da03214806108d057503330145b6108ed57604051635629665f60e11b815260040160405180910390fd5b600184036109055761090083838361192d565b61093e565b60028403610918576109008383836119c1565b6003840361092b576109008383836119df565b6004840361084f57610900838383611a72565b604080518581526001600160a01b03851660208201527f341347516a9de374859dfda710fa4828b2d48cb57d4fbe4c1149612b8e02276e91016108a5565b600081600881901b61099282600160f81b611ab7565b156109a057600192506109e3565b6109ab826000611ab7565b156109b957600192506109e3565b6109cb826001600160f81b0319611ab7565b156109d957600192506109e3565b5060009392505050565b6109ee816000611ab7565b156109fc5760019250610a14565b610a0a81600160f81b611ab7565b156109d957600192505b5050919050565b60606000805160206128f3833981519152610a368133611ace565b610a5557604051635c93ff2f60e11b81523360048201526024016104e9565b6000610a6d6000805160206129138339815191525490565b90506001600160a01b038116610d2d5785600881901b610a9182600160f81b611ab7565b15610b005786358701602081019035610aab836000611ab7565b15610ac157610aba8282611b08565b9650610af9565b610acf83600160f81b611ab7565b15610ade57610aba8282611be0565b826040516308c3ee0360e11b81526004016104e99190612733565b5050610d26565b610b0b826000611ab7565b15610c5957600080366000610b208b8b611d0d565b6040805160018082528183019092529498509296509094509250816020015b6060815260200190600190039081610b3f5790505098506000610b628682611ab7565b15610b9657610b7385858585611d5e565b8a600081518110610b8657610b86612748565b6020026020010181905250610c4f565b610ba486600160f81b611ab7565b15610c3457610bb585858585611d94565b8b600081518110610bc857610bc8612748565b6020908102919091010152905080610c2f577fe723f28f104e46b47fd3531f3608374ac226bcf3ddda334a23a266453e0efdb760008b600081518110610c1057610c10612748565b6020026020010151604051610c2692919061275e565b60405180910390a15b610c4f565b856040516308c3ee0360e11b81526004016104e99190612733565b5050505050610d26565b610c6b826001600160f81b0319611ab7565b15610d0b576000610c7f601482898b612383565b610c88916123ad565b60601c9050366000610c9d896014818d612383565b9092509050610cad846000611ab7565b15610cc357610cbd838383611dc6565b50610d03565b610cd184600160f81b611ab7565b15610ce857610ce1838383611dfa565b5050610d03565b836040516308c3ee0360e11b81526004016104e99190612733565b505050610d26565b81604051632e5bf3f960e21b81526004016104e99190612733565b5050611069565b604051631057c74d60e11b81526000906001600160a01b038316906320af8e9a90610d6090339085903690600401612777565b6000604051808303816000875af1158015610d7f573d6000803e3d6000fd5b505050506040513d6000823e601f3d908101601f19168201604052610da7919081019061279c565b905086600881901b610dbd82600160f81b611ab7565b15610e115787358801602081019035610dd7836000611ab7565b15610ded57610de68282611b08565b9750610e0a565b610dfb83600160f81b611ab7565b15610ade57610de68282611be0565b5050610fd9565b610e1c826000611ab7565b15610f4a57600080366000610e318c8c611d0d565b6040805160018082528183019092529498509296509094509250816020015b6060815260200190600190039081610e505790505099506000610e738682611ab7565b15610ea757610e8485858585611d5e565b8b600081518110610e9757610e97612748565b6020026020010181905250610f40565b610eb586600160f81b611ab7565b15610c3457610ec685858585611d94565b8c600081518110610ed957610ed9612748565b6020908102919091010152905080610f40577fe723f28f104e46b47fd3531f3608374ac226bcf3ddda334a23a266453e0efdb760008c600081518110610f2157610f21612748565b6020026020010151604051610f3792919061275e565b60405180910390a15b5050505050610fd9565b610f5c826001600160f81b0319611ab7565b15610d0b576000610f706014828a8c612383565b610f79916123ad565b60601c9050366000610f8e8a6014818e612383565b9092509050610f9e846000611ab7565b15610fb457610fae838383611dc6565b50610fd5565b610fc284600160f81b611ab7565b15610ce857610fd2838383611dfa565b50505b5050505b5050604051630b9dfbed60e11b81526001600160a01b0383169063173bf7da906110079084906004016122f3565b6020604051808303816000875af1158015611026573d6000803e3d6000fd5b505050506040513d601f19601f8201168201806040525081019061104a9190612809565b6110675760405163546b3e6360e01b815260040160405180910390fd5b505b50509392505050565b336f71727de22e5e9d8baf0edac6f37da032148061108f57503330145b6110ac57604051635629665f60e11b815260040160405180910390fd5b60006110c46000805160206129138339815191525490565b90506001600160a01b0381166112685783600881901b6110e882600160f81b611ab7565b1561113b5784358501602081019035611102836000611ab7565b15611117576111118282611b08565b50611134565b61112583600160f81b611ab7565b15610ade576111118282611be0565b5050611261565b611146826000611ab7565b156111d25760008036600061115b8989611d0d565b935093509350935061117185600060f81b611ab7565b156111885761118284848484611d5e565b506111c9565b61119685600160f81b611ab7565b156111ae576111a784848484611d94565b50506111c9565b846040516308c3ee0360e11b81526004016104e99190612733565b50505050611261565b6111e4826001600160f81b0319611ab7565b15610d0b5760006111f86014828789612383565b611201916123ad565b60601c9050366000611216876014818b612383565b9092509050611226846000611ab7565b1561123c57611236838383611dc6565b5061125d565b61124a84600160f81b611ab7565b15610ce85761125a838383611dfa565b50505b5050505b5050610793565b604051631057c74d60e11b81526000906001600160a01b038316906320af8e9a9061129b90339085903690600401612777565b6000604051808303816000875af11580156112ba573d6000803e3d6000fd5b505050506040513d6000823e601f3d908101601f191682016040526112e2919081019061279c565b905084600881901b6112f882600160f81b611ab7565b1561134b5785358601602081019035611312836000611ab7565b15611327576113218282611b08565b50611344565b61133583600160f81b611ab7565b15610ade576113218282611be0565b5050611452565b611356826000611ab7565b156113c35760008036600061136b8a8a611d0d565b935093509350935061138185600060f81b611ab7565b156113985761139284848484611d5e565b506113ba565b6113a685600160f81b611ab7565b156111ae576113b784848484611d94565b50505b50505050611452565b6113d5826001600160f81b0319611ab7565b15610d0b5760006113e9601482888a612383565b6113f2916123ad565b60601c9050366000611407886014818c612383565b9092509050611417846000611ab7565b1561142d57611427838383611dc6565b5061144e565b61143b84600160f81b611ab7565b15610ce85761144b838383611dfa565b50505b5050505b5050604051630b9dfbed60e11b81526001600160a01b0383169063173bf7da906114809084906004016122f3565b6020604051808303816000875af115801561149f573d6000803e3d6000fd5b505050506040513d601f19601f820116820180604052508101906114c39190612809565b6106b25760405163546b3e6360e01b815260040160405180910390fd5b606060006000805160206128f38339815191526107b78186866115ee565b60006001820361151057506001919050565b6002820361152057506001919050565b6003820361153057506001919050565b6004820361154057506001919050565b506000919050565b919050565b60006000805160206129338339815191526115688184611ace565b9392505050565b60006000805160206128f38339815191526115688184611ace565b6000816001600160a01b03166115ac6000805160206129138339815191525490565b6001600160a01b03161492915050565b6000805160206129338339815191526115e26000805160206128f3833981519152611e2a565b6115eb81611e2a565b50565b606060006001600160a01b03841660011480159061161157506116118585611ace565b1561163a57604051637c84ecfb60e01b81526001600160a01b03851660048201526024016104e9565b8260000361165b5760405163f725081760e01b815260040160405180910390fd5b826001600160401b03811115611673576116736125c2565b60405190808252806020026020018201604052801561169c578160200160208202803683370190505b506001600160a01b03808616600090815260208890526040812054929450911691505b6001600160a01b038216158015906116e157506001600160a01b038216600114155b80156116ec57508381105b15611746578183828151811061170457611704612748565b6001600160a01b03928316602091820292909201810191909152928116600090815292879052604090922054909116908061173e81612841565b9150506116bf565b6001600160a01b03821660011461177e578261176360018361285a565b8151811061177357611773612748565b602002602001015191505b80835250935093915050565b6000805160206129338339815191526117a38185611e87565b6040516306d61fe760e41b81526001600160a01b03851690636d61fe70906117d1908690869060040161286d565b600060405180830381600087803b1580156117eb57600080fd5b505af11580156117ff573d6000803e3d6000fd5b5050505050505050565b6000805160206128f38339815191526117a38185611e87565b6000805160206128d3833981519152546001600160a01b03161561184557600080fd5b6000805160206128d383398151915280546001600160a01b0319166001600160a01b0385169081179091556040516306d61fe760e41b8152636d61fe7090611893908590859060040161286d565b600060405180830381600087803b1580156118ad57600080fd5b505af11580156118c1573d6000803e3d6000fd5b50505050505050565b60006118e26000805160206129138339815191525490565b90506001600160a01b038116156119175760405163741cbe0360e01b81526001600160a01b03821660048201526024016104e9565b6117a38460008051602061291383398151915255565b60008051602061293383398151915260008061194b8585018661262f565b909250905061195b838388611f5d565b604051638a91b0e360e01b81526001600160a01b03871690638a91b0e3906119879084906004016122f3565b600060405180830381600087803b1580156119a157600080fd5b505af11580156119b5573d6000803e3d6000fd5b50505050505050505050565b6000805160206128f383398151915260008061194b8585018661262f565b6000805160206128d3833981519152546001600160a01b039081169084168114611a2757604051635c93ff2f60e11b81526001600160a01b03851660048201526024016104e9565b6000805160206128d383398151915280546001600160a01b0319169055604051638a91b0e360e01b81526001600160a01b03821690638a91b0e3906117d1908690869060040161286d565b611a89600060008051602061291383398151915255565b604051638a91b0e360e01b81526001600160a01b03841690638a91b0e390611893908590859060040161286d565b6001600160f81b0319828116908216145b92915050565b600060016001600160a01b038316148015906115685750506001600160a01b03908116600090815260209290925260409091205416151590565b606081806001600160401b03811115611b2357611b236125c2565b604051908082528060200260200182016040528015611b5657816020015b6060815260200190600190039081611b415790505b50915060005b81811015611bd85736858583818110611b7757611b77612748565b9050602002810190611b899190612881565b9050611bb2611b9b6020830183612897565b6020830135611bad60408501856126dd565b611d5e565b848381518110611bc457611bc4612748565b602090810291909101015250600101611b5c565b505092915050565b606081806001600160401b03811115611bfb57611bfb6125c2565b604051908082528060200260200182016040528015611c2e57816020015b6060815260200190600190039081611c195790505b50915060005b81811015611bd85736858583818110611c4f57611c4f612748565b9050602002810190611c619190612881565b90506000611c8c611c756020840184612897565b6020840135611c8760408601866126dd565b611d94565b868581518110611c9e57611c9e612748565b6020908102919091010152905080611d03577fe723f28f104e46b47fd3531f3608374ac226bcf3ddda334a23a266453e0efdb783868581518110611ce457611ce4612748565b6020026020010151604051611cfa92919061275e565b60405180910390a15b5050600101611c34565b6000803681611d1f6014828789612383565b611d28916123ad565b60601c9350611d3b603460148789612383565b611d44916128b4565b9250611d538560348189612383565b949793965094505050565b60405181838237600038838387895af1611d7b573d6000823e3d81fd5b3d8152602081013d6000823e3d01604052949350505050565b604051600090828482376000388483888a5af11591503d8152602081013d6000823e3d81016040525094509492505050565b604051818382376000388383875af4611de2573d6000823e3d81fd5b3d8152602081013d6000823e3d016040529392505050565b604051600090828482376000388483885af41591503d8152602081013d6000823e3d810160405250935093915050565b60016000908152602082905260409020546001600160a01b031615611e62576040516329e42f3360e11b815260040160405180910390fd5b60016000818152602092909252604090912080546001600160a01b0319169091179055565b6001600160a01b0381161580611ea657506001600160a01b0381166001145b15611ecf57604051637c84ecfb60e01b81526001600160a01b03821660048201526024016104e9565b6001600160a01b038181166000908152602084905260409020541615611f1357604051631034f46960e21b81526001600160a01b03821660048201526024016104e9565b60016000818152602093909352604080842080546001600160a01b039485168087529286208054959091166001600160a01b03199586161790559190935280549091169091179055565b6001600160a01b0381161580611f7c57506001600160a01b0381166001145b15611fa557604051637c84ecfb60e01b81526001600160a01b03831660048201526024016104e9565b6001600160a01b03828116600090815260208590526040902054811690821614611fed57604051637c84ecfb60e01b81526001600160a01b03821660048201526024016104e9565b6001600160a01b0390811660008181526020949094526040808520805494841686529085208054949093166001600160a01b0319948516179092559092528154169055565b6001600160a01b03811681146115eb57600080fd5b803561154881612032565b60008083601f84011261206457600080fd5b5081356001600160401b0381111561207b57600080fd5b6020830191508360208285010111156107bd57600080fd5b600080600080606085870312156120a957600080fd5b8435935060208501356120bb81612032565b925060408501356001600160401b038111156120d657600080fd5b6120e287828801612052565b95989497509550505050565b60008060006040848603121561210357600080fd5b8335925060208401356001600160401b0381111561212057600080fd5b61212c86828701612052565b9497909650939450505050565b6000610120828403121561214c57600080fd5b50919050565b60008060006060848603121561216757600080fd5b83356001600160401b0381111561217d57600080fd5b61218986828701612139565b9660208601359650604090950135949350505050565b600080602083850312156121b257600080fd5b82356001600160401b038111156121c857600080fd5b6121d485828601612052565b90969095509350505050565b6000602082840312156121f257600080fd5b81356001600160401b0381111561220857600080fd5b61049684828501612139565b6000806040838503121561222757600080fd5b823561223281612032565b946020939093013593505050565b604080825283519082018190526000906020906060840190828701845b828110156122825781516001600160a01b03168452928401929084019060010161225d565b5050506001600160a01b039490941660209390930192909252509092915050565b60005b838110156122be5781810151838201526020016122a6565b50506000910152565b600081518084526122df8160208601602086016122a3565b601f01601f19169290920160200192915050565b60208152600061156860208301846122c7565b60006020828403121561231857600080fd5b5035919050565b600060208083016020845280855180835260408601915060408160051b87010192506020870160005b8281101561237657603f198886030184526123648583516122c7565b94509285019290850190600101612348565b5092979650505050505050565b6000808585111561239357600080fd5b838611156123a057600080fd5b5050820193919092039150565b6bffffffffffffffffffffffff198135818116916014851015611bd85760149490940360031b84901b1690921692915050565b81835281816020850137506000828201602090810191909152601f909101601f19169091010190565b60018060a01b03851681528360208201526060604082015260006124316060830184866123e0565b9695505050505050565b60006020828403121561244d57600080fd5b81516001600160e01b03198116811461156857600080fd5b6000808335601e1984360301811261247c57600080fd5b83016020810192503590506001600160401b0381111561249b57600080fd5b8036038213156107bd57600080fd5b604081526124cb604082016124be85612047565b6001600160a01b03169052565b6020830135606082015260006124e46040850185612465565b6101208060808601526124fc610160860183856123e0565b925061250b6060880188612465565b9250603f19808786030160a08801526125258585846123e0565b9450608089013560c088015260a089013560e0880152610100935060c08901358488015261255660e08a018a612465565b925081888703018489015261256c8684836123e0565b95505061257b848a018a612465565b94509250808786030161014088015250506125978383836123e0565b93505050508260208301529392505050565b6000602082840312156125bb57600080fd5b5051919050565b634e487b7160e01b600052604160045260246000fd5b604051601f8201601f191681016001600160401b0381118282101715612600576126006125c2565b604052919050565b60006001600160401b03821115612621576126216125c2565b50601f01601f191660200190565b6000806040838503121561264257600080fd5b823561264d81612032565b915060208301356001600160401b0381111561266857600080fd5b8301601f8101851361267957600080fd5b803561268c61268782612608565b6125d8565b8181528660208385010111156126a157600080fd5b816020840160208301376000602083830101528093505050509250929050565b600082516126d38184602087016122a3565b9190910192915050565b6000808335601e198436030181126126f457600080fd5b8301803591506001600160401b0382111561270e57600080fd5b6020019150368190038213156107bd57600080fd5b8183823760009101908152919050565b6001600160f81b031991909116815260200190565b634e487b7160e01b600052603260045260246000fd5b82815260406020820152600061049660408301846122c7565b6001600160a01b038416815260406020820181905260009061057090830184866123e0565b6000602082840312156127ae57600080fd5b81516001600160401b038111156127c457600080fd5b8201601f810184136127d557600080fd5b80516127e361268782612608565b8181528560208385010111156127f857600080fd5b6105708260208301602086016122a3565b60006020828403121561281b57600080fd5b8151801515811461156857600080fd5b634e487b7160e01b600052601160045260246000fd5b6000600182016128535761285361282b565b5060010190565b81810381811115611ac857611ac861282b565b6020815260006104966020830184866123e0565b60008235605e198336030181126126d357600080fd5b6000602082840312156128a957600080fd5b813561156881612032565b80356020831015611ac857600019602084900360031b1b169291505056fef88ce1fdb7fb1cbd3282e49729100fa3f2d6ee9f797961fe4fb1871cea89ea04f88ce1fdb7fb1cbd3282e49729100fa3f2d6ee9f797961fe4fb1871cea89ea0336e05829dd1b9a4411d96a3549582172d7f071c1c0db5c573fcf94eb28431608f88ce1fdb7fb1cbd3282e49729100fa3f2d6ee9f797961fe4fb1871cea89ea02a26469706673582212202329c8a370e907a94aa864795d1994f7d007ecec1ffcd07df3b11c71f53df6c064736f6c63430008180033","linkReferences":{}},"methodIdentifiers":{"accountId()":"9cfd7cff","entryPoint()":"b0d691fe","execute(bytes32,bytes)":"e9ae5c53","executeFromExecutor(bytes32,bytes)":"d691c964","executeUserOp((address,uint256,bytes,bytes,bytes32,uint256,bytes32,bytes,bytes))":"72aea654","getActiveFallbackHandler()":"8acf4c6a","getActiveHook()":"0a664dba","getExecutorsPaginated(address,uint256)":"ea5f61d0","getValidatorPaginated(address,uint256)":"85571368","initializeAccount(bytes)":"4b6a1419","installModule(uint256,address,bytes)":"9517e29f","isModuleInstalled(uint256,address,bytes)":"112d3a7d","isValidSignature(bytes32,bytes)":"1626ba7e","supportsExecutionMode(bytes32)":"d03c7914","supportsModule(uint256)":"f2dc691d","uninstallModule(uint256,address,bytes)":"a71763a8","validateUserOp((address,uint256,bytes,bytes,bytes32,uint256,bytes32,bytes,bytes),bytes32,uint256)":"19822f7c"},"id":60}