{"abi":[{"type":"fallback","stateMutability":"payable"},{"type":"receive","stateMutability":"payable"},{"type":"function","name":"accountId","inputs":[],"outputs":[{"name":"accountImplementationId","type":"string","internalType":"string"}],"stateMutability":"view"},{"type":"function","name":"domainSeparator","inputs":[],"outputs":[{"name":"","type":"bytes32","internalType":"bytes32"}],"stateMutability":"view"},{"type":"function","name":"entryPoint","inputs":[],"outputs":[{"name":"","type":"address","internalType":"address"}],"stateMutability":"view"},{"type":"function","name":"execute","inputs":[{"name":"mode","type":"bytes32","internalType":"ModeCode"},{"name":"executionCalldata","type":"bytes","internalType":"bytes"}],"outputs":[],"stateMutability":"payable"},{"type":"function","name":"executeFromExecutor","inputs":[{"name":"mode","type":"bytes32","internalType":"ModeCode"},{"name":"executionCalldata","type":"bytes","internalType":"bytes"}],"outputs":[{"name":"returnData","type":"bytes[]","internalType":"bytes[]"}],"stateMutability":"payable"},{"type":"function","name":"executeUserOp","inputs":[{"name":"userOp","type":"tuple","internalType":"struct PackedUserOperation","components":[{"name":"sender","type":"address","internalType":"address"},{"name":"nonce","type":"uint256","internalType":"uint256"},{"name":"initCode","type":"bytes","internalType":"bytes"},{"name":"callData","type":"bytes","internalType":"bytes"},{"name":"accountGasLimits","type":"bytes32","internalType":"bytes32"},{"name":"preVerificationGas","type":"uint256","internalType":"uint256"},{"name":"gasFees","type":"bytes32","internalType":"bytes32"},{"name":"paymasterAndData","type":"bytes","internalType":"bytes"},{"name":"signature","type":"bytes","internalType":"bytes"}]}],"outputs":[],"stateMutability":"payable"},{"type":"function","name":"getActiveHook","inputs":[],"outputs":[{"name":"hook","type":"address","internalType":"address"}],"stateMutability":"view"},{"type":"function","name":"getExecutorsPaginated","inputs":[{"name":"cursor","type":"address","internalType":"address"},{"name":"size","type":"uint256","internalType":"uint256"}],"outputs":[{"name":"array","type":"address[]","internalType":"address[]"},{"name":"next","type":"address","internalType":"address"}],"stateMutability":"view"},{"type":"function","name":"getNonce","inputs":[{"name":"safe","type":"address","internalType":"address"},{"name":"validator","type":"address","internalType":"address"}],"outputs":[{"name":"nonce","type":"uint256","internalType":"uint256"}],"stateMutability":"view"},{"type":"function","name":"getValidatorPaginated","inputs":[{"name":"start","type":"address","internalType":"address"},{"name":"pageSize","type":"uint256","internalType":"uint256"}],"outputs":[{"name":"array","type":"address[]","internalType":"address[]"},{"name":"next","type":"address","internalType":"address"}],"stateMutability":"view"},{"type":"function","name":"initializeAccount","inputs":[{"name":"callData","type":"bytes","internalType":"bytes"}],"outputs":[],"stateMutability":"payable"},{"type":"function","name":"initializeAccount","inputs":[{"name":"validators","type":"tuple[]","internalType":"struct ISafe7579Init.ModuleInit[]","components":[{"name":"module","type":"address","internalType":"address"},{"name":"initData","type":"bytes","internalType":"bytes"}]},{"name":"executors","type":"tuple[]","internalType":"struct ISafe7579Init.ModuleInit[]","components":[{"name":"module","type":"address","internalType":"address"},{"name":"initData","type":"bytes","internalType":"bytes"}]},{"name":"fallbacks","type":"tuple[]","internalType":"struct ISafe7579Init.ModuleInit[]","components":[{"name":"module","type":"address","internalType":"address"},{"name":"initData","type":"bytes","internalType":"bytes"}]},{"name":"hooks","type":"tuple[]","internalType":"struct ISafe7579Init.ModuleInit[]","components":[{"name":"module","type":"address","internalType":"address"},{"name":"initData","type":"bytes","internalType":"bytes"}]}],"outputs":[],"stateMutability":"payable"},{"type":"function","name":"installModule","inputs":[{"name":"moduleType","type":"uint256","internalType":"uint256"},{"name":"module","type":"address","internalType":"address"},{"name":"initData","type":"bytes","internalType":"bytes"}],"outputs":[],"stateMutability":"payable"},{"type":"function","name":"isModuleInstalled","inputs":[{"name":"moduleType","type":"uint256","internalType":"uint256"},{"name":"module","type":"address","internalType":"address"},{"name":"additionalContext","type":"bytes","internalType":"bytes"}],"outputs":[{"name":"","type":"bool","internalType":"bool"}],"stateMutability":"view"},{"type":"function","name":"isValidSignature","inputs":[{"name":"hash","type":"bytes32","internalType":"bytes32"},{"name":"data","type":"bytes","internalType":"bytes"}],"outputs":[{"name":"magicValue","type":"bytes4","internalType":"bytes4"}],"stateMutability":"view"},{"type":"function","name":"supportsExecutionMode","inputs":[{"name":"encodedMode","type":"bytes32","internalType":"ModeCode"}],"outputs":[{"name":"","type":"bool","internalType":"bool"}],"stateMutability":"pure"},{"type":"function","name":"supportsModule","inputs":[{"name":"moduleTypeId","type":"uint256","internalType":"uint256"}],"outputs":[{"name":"","type":"bool","internalType":"bool"}],"stateMutability":"pure"},{"type":"function","name":"uninstallModule","inputs":[{"name":"moduleType","type":"uint256","internalType":"uint256"},{"name":"module","type":"address","internalType":"address"},{"name":"deInitData","type":"bytes","internalType":"bytes"}],"outputs":[],"stateMutability":"payable"},{"type":"function","name":"validateUserOp","inputs":[{"name":"userOp","type":"tuple","internalType":"struct PackedUserOperation","components":[{"name":"sender","type":"address","internalType":"address"},{"name":"nonce","type":"uint256","internalType":"uint256"},{"name":"initCode","type":"bytes","internalType":"bytes"},{"name":"callData","type":"bytes","internalType":"bytes"},{"name":"accountGasLimits","type":"bytes32","internalType":"bytes32"},{"name":"preVerificationGas","type":"uint256","internalType":"uint256"},{"name":"gasFees","type":"bytes32","internalType":"bytes32"},{"name":"paymasterAndData","type":"bytes","internalType":"bytes"},{"name":"signature","type":"bytes","internalType":"bytes"}]},{"name":"userOpHash","type":"bytes32","internalType":"bytes32"},{"name":"missingAccountFunds","type":"uint256","internalType":"uint256"}],"outputs":[{"name":"validSignature","type":"uint256","internalType":"uint256"}],"stateMutability":"payable"},{"type":"event","name":"ModuleInstalled","inputs":[{"name":"moduleTypeId","type":"uint256","indexed":false,"internalType":"uint256"},{"name":"module","type":"address","indexed":false,"internalType":"address"}],"anonymous":false},{"type":"event","name":"ModuleUninstalled","inputs":[{"name":"moduleTypeId","type":"uint256","indexed":false,"internalType":"uint256"},{"name":"module","type":"address","indexed":false,"internalType":"address"}],"anonymous":false},{"type":"event","name":"Safe7579Initialized","inputs":[{"name":"safe","type":"address","indexed":true,"internalType":"address"}],"anonymous":false},{"type":"error","name":"AccountAccessUnauthorized","inputs":[]},{"type":"error","name":"AccountInitializationFailed","inputs":[]},{"type":"error","name":"CannotRemoveLastValidator","inputs":[]},{"type":"error","name":"ExecutionFailed","inputs":[]},{"type":"error","name":"FallbackInstalled","inputs":[{"name":"msgSig","type":"bytes4","internalType":"bytes4"}]},{"type":"error","name":"HookAlreadyInstalled","inputs":[{"name":"currentHook","type":"address","internalType":"address"}]},{"type":"error","name":"HookPostCheckFailed","inputs":[]},{"type":"error","name":"InitializerError","inputs":[]},{"type":"error","name":"InvalidModule","inputs":[{"name":"module","type":"address","internalType":"address"}]},{"type":"error","name":"LinkedListError","inputs":[]},{"type":"error","name":"LinkedList_AlreadyInitialized","inputs":[]},{"type":"error","name":"LinkedList_AlreadyInitialized","inputs":[]},{"type":"error","name":"LinkedList_EntryAlreadyInList","inputs":[{"name":"entry","type":"address","internalType":"address"}]},{"type":"error","name":"LinkedList_EntryAlreadyInList","inputs":[{"name":"entry","type":"address","internalType":"address"}]},{"type":"error","name":"LinkedList_InvalidEntry","inputs":[{"name":"entry","type":"address","internalType":"address"}]},{"type":"error","name":"LinkedList_InvalidEntry","inputs":[{"name":"entry","type":"address","internalType":"address"}]},{"type":"error","name":"LinkedList_InvalidPage","inputs":[]},{"type":"error","name":"LinkedList_InvalidPage","inputs":[]},{"type":"error","name":"NoFallbackHandler","inputs":[{"name":"msgSig","type":"bytes4","internalType":"bytes4"}]},{"type":"error","name":"Unsupported","inputs":[]},{"type":"error","name":"UnsupportedCallType","inputs":[{"name":"callType","type":"bytes1","internalType":"CallType"}]},{"type":"error","name":"UnsupportedExecType","inputs":[{"name":"execType","type":"bytes1","internalType":"ExecType"}]},{"type":"error","name":"UnsupportedModuleType","inputs":[{"name":"moduleTypeId","type":"uint256","internalType":"uint256"}]},{"type":"error","name":"ValidatorStorageHelperError","inputs":[]}],"bytecode":{"object":"0x608060405234801561001057600080fd5b506134de806100206000396000f3fe6080604052600436106101185760003560e01c8063a71763a8116100a0578063e130ecad11610064578063e130ecad14610430578063e9ae5c5314610443578063ea5f61d014610456578063f2dc691d14610476578063f698da25146104965761011f565b8063a71763a81461039a578063b0d691fe146103ad578063d03c7914146103d0578063d691c964146103f0578063d828435d146104105761011f565b80634b6a1419116100e75780634b6a14191461031057806372aea6541461032457806385571368146103375780639517e29f146103655780639cfd7cff146103785761011f565b80630a664dba14610242578063112d3a7d146102865780631626ba7e146102b657806319822f7c146102ef5761011f565b3661011f57005b600036606060003560e01c63bc197c81811463f23a6e6182141763150b7a028214171561015057806020526020603cf35b50336000908152602081815260408083206001600160e01b03198435168452600101909152902080546001600160a01b03811690600160a01b900460f81b816101bf57604051632464e76d60e11b81526001600160e01b03196000351660048201526024015b60405180910390fd5b6101ca8160006104ab565b15610210576102063383600089896101e06104c2565b6040516020016101f29392919061283a565b6040516020818303038152906040526104ce565b9350505050610237565b610222816001600160f81b03196104ab565b156102335761020633838888610577565b5050505b915050805190602001f35b34801561024e57600080fd5b50336000908152600260205260409020546001600160a01b03165b6040516001600160a01b0390911681526020015b60405180910390f35b34801561029257600080fd5b506102a66102a13660046128c1565b6105b1565b604051901515815260200161027d565b3480156102c257600080fd5b506102d66102d136600461291c565b610626565b6040516001600160e01b0319909116815260200161027d565b6103026102fd366004612980565b6108c3565b60405190815260200161027d565b61032261031e3660046129cd565b5050565b005b610322610332366004612a0e565b6109a8565b34801561034357600080fd5b50610357610352366004612a42565b610a99565b60405161027d929190612a6e565b6103226103733660046128c1565b610ab6565b34801561038457600080fd5b5061038d610bce565b60405161027d9190612b21565b6103226103a83660046128c1565b610c67565b3480156103b957600080fd5b506f71727de22e5e9d8baf0edac6f37da032610269565b3480156103dc57600080fd5b506102a66103eb366004612b34565b610d59565b6104036103fe36600461291c565b610dba565b60405161027d9190612b4d565b34801561041c57600080fd5b5061030261042b366004612bb1565b611006565b61032261043e366004612c2e565b6110a6565b61032261045136600461291c565b611254565b34801561046257600080fd5b50610357610471366004612a42565b6113fc565b34801561048257600080fd5b506102a6610491366004612b34565b611426565b3480156104a257600080fd5b50610302611475565b6001600160f81b0319828116908216145b92915050565b60131936013560601c90565b60606000856001600160a01b0316635229073f86868660006040518563ffffffff1660e01b81526004016105059493929190612cf1565b6000604051808303816000875af1158015610524573d6000803e3d6000fd5b505050506040513d6000823e601f3d908101601f1916820160405261054c9190810190612dfe565b925090508061056e57604051632b3f6d1160e21b815260040160405180910390fd5b50949350505050565b60606000856001600160a01b0316635229073f866000878760016040518663ffffffff1660e01b8152600401610505959493929190612e74565b6000600185036105cb576105c4846114ce565b905061061e565b600285036105dc576105c4846114dc565b600385036105ef576105c48484846114f5565b6004850361061a57336000908152600260205260409020546001600160a01b038086169116146105c4565b5060005b949350505050565b6000338215801561069e5750604051635ae6bd3760e01b8152600481018690526001600160a01b03821690635ae6bd3790602401602060405180830381865afa158015610677573d6000803e3d6000fd5b505050506040513d601f19601f8201168201806040525081019061069b9190612eb1565b15155b156106b35750630b135d3f60e11b90506108bc565b60006106c26014828688612eca565b6106cb91612ef4565b60601c90508015806106e357506106e1816114ce565b155b156108395760006107ae836001600160a01b031663f698da256040518163ffffffff1660e01b8152600401602060405180830381865afa15801561072b573d6000803e3d6000fd5b505050506040513d601f19601f8201168201806040525081019061074f9190612eb1565b60408051602081018b90527f60b3cbf8b4a223d68d641b3b6ddf9a298e7f33710cf3d3a9d1146b5a6150fbca910160408051601f1981840301815282825280516020918201209083015201604051602081830303815290604052611544565b805160208201209091506001600160a01b03841663934f3a1182846107d68a6014818e612eca565b6040518563ffffffff1660e01b81526004016107f59493929190612f29565b60006040518083038186803b15801561080d57600080fd5b505afa158015610821573d6000803e3d6000fd5b50630b135d3f60e11b97506108bc9650505050505050565b6001600160a01b03811663f551e2ee3388610857886014818c612eca565b6040518563ffffffff1660e01b81526004016108769493929190612f60565b602060405180830381865afa158015610893573d6000803e3d6000fd5b505050506040513d601f19601f820116820180604052508101906108b79190612fa8565b925050505b9392505050565b60006020840135606081901c908115806108e357506108e1826114ce565b155b156108fa576108f1866115be565b925050506108bc565b604051639700320360e01b81526001600160a01b03831690639700320390610928908990899060040161300a565b6020604051808303816000875af1158015610947573d6000803e3d6000fd5b505050506040513d601f19601f8201168201806040525081019061096b9190612eb1565b9250831561099f5761099f86356f71727de22e5e9d8baf0edac6f37da0328660405180602001604052806000815250611674565b50509392505050565b6f71727de22e5e9d8baf0edac6f37da0326109c16104c2565b6001600160a01b031614806109ee57506109d96104c2565b6001600160a01b0316336001600160a01b0316145b610a0b57604051635629665f60e11b815260040160405180910390fd5b600030610a1b6060840184613109565b610a29916004908290612eca565b604051610a3792919061314f565b600060405180830381855af49150503d8060008114610a72576040519150601f19603f3d011682016040523d82523d6000602084013e610a77565b606091505b505090508061031e57604051632b3f6d1160e21b815260040160405180910390fd5b60606000610aaa6001338686611713565b915091505b9250929050565b6f71727de22e5e9d8baf0edac6f37da032610acf6104c2565b6001600160a01b03161480610afc5750610ae76104c2565b6001600160a01b0316336001600160a01b0316145b610b1957604051635629665f60e11b815260040160405180910390fd5b60018403610b3157610b2c8383836118c7565b610b86565b60028403610b4457610b2c838383611921565b60038403610b5757610b2c83838361195a565b60048403610b6a57610b2c838383611a44565b60405163041c38b360e41b8152600481018590526024016101b6565b604080518581526001600160a01b03851660208201527fd21d0b289f126c4b473ea641963e766833c2f13866e4ff480abd787c100ef12391015b60405180910390a150505050565b60606000610bda6104c2565b6001600160a01b031663ffa1ad746040518163ffffffff1660e01b8152600401600060405180830381865afa158015610c17573d6000803e3d6000fd5b505050506040513d6000823e601f3d908101601f19168201604052610c3f919081019061315f565b905080604051602001610c5291906131a7565b60405160208183030381529060405291505090565b6f71727de22e5e9d8baf0edac6f37da032610c806104c2565b6001600160a01b03161480610cad5750610c986104c2565b6001600160a01b0316336001600160a01b0316145b610cca57604051635629665f60e11b815260040160405180910390fd5b60018403610ce257610cdd838383611ac8565b610d1b565b60028403610cf557610cdd838383611b30565b60038403610d0857610cdd838383611b75565b60048403610b6a57610cdd838383611bd4565b604080518581526001600160a01b03851660208201527f341347516a9de374859dfda710fa4828b2d48cb57d4fbe4c1149612b8e02276e9101610bc0565b600081610d6a81600160f81b6104ab565b15610d785750600192915050565b610d838160006104ab565b15610d915750600192915050565b610da3816001600160f81b03196104ab565b15610db15750600192915050565b50600092915050565b6060610dcc610dc76104c2565b6114dc565b610dfd57610dd86104c2565b604051635c93ff2f60e11b81526001600160a01b0390911660048201526024016101b6565b336000908152600260205260409020546001600160a01b03168015801590606090610e2e57610e2b83611c0a565b90505b86610e3d81600160f81b6104ab565b15610e605786358701602081019035610e57338383611c72565b96505050610feb565b610e6b8160006104ab565b15610f1f57600080366000610e808b8b611d78565b6040805160018082528183019092529498509296509094509250816020015b6060815260200190600190039081610e9f579050509850610ef833858585858080601f0160208091040260200160405190810160405280939291908181526020018383808284376000920191909152506104ce92505050565b89600081518110610f0b57610f0b6131d9565b602002602001018190525050505050610feb565b610f31816001600160f81b03196104ab565b15610fc6576000610f45601482898b612eca565b610f4e91612ef4565b60601c9050366000610f63896014818d612eca565b604080516001808252818301909252929450909250816020015b6060815260200190600190039081610f7d579050509750610fa033848484610577565b88600081518110610fb357610fb36131d9565b6020026020010181905250505050610feb565b604051632e5bf3f960e21b81526001600160f81b0319821660048201526024016101b6565b508115610ffc57610ffc8382611dc9565b5050509392505050565b6000602082901b640100000000600160c01b03166f71727de22e5e9d8baf0edac6f37da032604051631aab3f0d60e11b81526001600160a01b0386811660048301526001600160c01b038416602483015291909116906335567e1a90604401602060405180830381865afa158015611082573d6000803e3d6000fd5b505050506040513d601f19601f8201168201806040525081019061061e9190612eb1565b6110ae611e10565b8660005b8181101561110c57368a8a838181106110cd576110cd6131d9565b90506020028101906110df91906131ef565b90506111036110f1602083018361320f565b6110fe6020840184613109565b6118c7565b506001016110b2565b5085905060005b8181101561116d573688888381811061112e5761112e6131d9565b905060200281019061114091906131ef565b9050611164611152602083018361320f565b61115f6020840184613109565b611921565b50600101611113565b5083905060005b818110156111ce573686868381811061118f5761118f6131d9565b90506020028101906111a191906131ef565b90506111c56111b3602083018361320f565b6111c06020840184613109565b61195a565b50600101611174565b5081905060005b8181101561121d57368484838181106111f0576111f06131d9565b905060200281019061120291906131ef565b90506112146111b3602083018361320f565b506001016111d5565b5060405133907ff48581d8a62b775b74f2fb67f1d5806a9a356fbcc598040ab3071d3e37af40c290600090a2505050505050505050565b336000908152600260205260409020546001600160a01b031680158015906060906112855761128283611c0a565b90505b6f71727de22e5e9d8baf0edac6f37da03261129e6104c2565b6001600160a01b031614806112cb57506112b66104c2565b6001600160a01b0316336001600160a01b0316145b6112e857604051635629665f60e11b815260040160405180910390fd5b856112f781600160f81b6104ab565b156113185785358601602081019035611311338383611e38565b50506113e3565b6113238160006104ab565b1561138b576000803660006113388a8a611d78565b935093509350935061138233858585858080601f01602080910402602001604051908101604052809392919081815260200183838082843760009201919091525061167492505050565b505050506113e3565b61139d816001600160f81b03196104ab565b15610fc65760006113b1601482888a612eca565b6113ba91612ef4565b60601c90503660006113cf886014818c612eca565b915091506113df33848484611ed1565b5050505b5081156113f4576113f48382611dc9565b505050505050565b3360009081526020819052604081206060919061141a818686611f09565b92509250509250929050565b60006001820361143857506001919050565b6002820361144857506001919050565b6003820361145857506001919050565b6004820361146857506001919050565b506000919050565b919050565b604080517f47e79534a245952e8b16893a336b85a3d9ea9fa8c573f3d803afb92a794692186020820152469181019190915230606082015260009060800160405160208183030381529060405280519060200120905090565b60006104bc600133846120a5565b3360009081526020819052604081206108bc81846120e9565b6000806115048385018561322c565b336000908152602081815260408083206001600160e01b031990941683526001909301905220546001600160a01b03908116908616149150509392505050565b6060601960f81b600160f81b858585604051602001611564929190613249565b60408051808303601f190181529082905280516020918201206001600160f81b0319958616918301919091529290931660218401526022830152604282015260620160405160208183030381529060405290509392505050565b6000806000803660006115d087612123565b945094509450945094506115e2873590565b8551602087012060405163934f3a1160e01b81526001600160a01b03929092169163934f3a119161161b91899087908790600401612f29565b60006040518083038186803b15801561163357600080fd5b505afa925050508015611644575060015b61165b576116546001848661234a565b955061166a565b6116676000848661234a565b95505b5050505050919050565b60405163468721a760e01b81526000906001600160a01b0386169063468721a7906116a9908790879087908790600401612cf1565b6020604051808303816000875af11580156116c8573d6000803e3d6000fd5b505050506040513d601f19601f820116820180604052508101906116ec919061326f565b90508061170c57604051632b3f6d1160e21b815260040160405180910390fd5b5050505050565b606060006001600160a01b03841660011480159061173757506117378686866120a5565b1561176057604051637c84ecfb60e01b81526001600160a01b03851660048201526024016101b6565b826000036117815760405163f725081760e01b815260040160405180910390fd5b826001600160401b0381111561179957611799612d3c565b6040519080825280602002602001820160405280156117c2578160200160208202803683370190505b506001600160a01b038086166000908152602089815260408083208a85168452909152812054929450911691505b6001600160a01b0382161580159061181257506001600160a01b038216600114155b801561181d57508381105b156118825781838281518110611835576118356131d9565b6001600160a01b039283166020918202929092018101919091529281166000908152888452604080822089841683529094529290922054909116908061187a816132a0565b9150506117f0565b6001600160a01b0382166001146118ba578261189f6001836132b9565b815181106118af576118af6131d9565b602002602001015191505b8083525094509492505050565b6118d360013385612382565b61191c3384600085856040516024016118ed9291906132cc565b60408051601f198184030181529190526020810180516001600160e01b03166306d61fe760e41b179052611674565b505050565b33600090815260208190526040902061193a8185612477565b6119543385600086866040516024016118ed9291906132cc565b50505050565b6000808061196a84860186613331565b336000908152602081815260408083206001600160e01b03198716845260010190915290205492955090935091506001600160a01b0316156119cb576040516374420d1560e01b81526001600160e01b0319841660048201526024016101b6565b336000818152602081815260408083206001600160e01b03198816845260010190915280822080546001600160a81b031916600160a01b60f888901c026001600160a01b031916176001600160a01b038b1617815590519092611a3b9290918a91906118ed908790602401612b21565b50505050505050565b336000908152600260205260409020546001600160a01b03168015611a875760405163741cbe0360e01b81526001600160a01b03821660048201526024016101b6565b3360008181526002602052604080822080546001600160a01b0319166001600160a01b03891617905551611954929187916118ed90889088906024016132cc565b600080611ad78385018561339f565b9092509050611ae9600133848861254d565b61170c3386600084604051602401611b019190612b21565b60408051601f198184030181529190526020810180516001600160e01b0316638a91b0e360e01b179052611674565b3360009081526020819052604081209080611b4d8486018661339f565b9092509050611b5d838388612644565b6113f43387600084604051602401611b019190612b21565b6000611b838284018461322c565b336000818152602081815260408083206001600160e01b0319861684526001810190925280832080546001600160a01b0319169055519394509261170c92918891611b0190899089906024016132cc565b3360008181526002602052604080822080546001600160a01b03191690555161191c92918691611b0190879087906024016132cc565b6060611c5f33836000611c1b6104c2565b600036604051602401611c30939291906133e4565b60408051601f198184030181529190526020810180516001600160e01b0316631057c74d60e11b1790526104ce565b8060200190518101906104bc9190613412565b606081806001600160401b03811115611c8d57611c8d612d3c565b604051908082528060200260200182016040528015611cc057816020015b6060815260200190600190039081611cab5790505b50915060005b8181101561099f5736858583818110611ce157611ce16131d9565b9050602002810190611cf39190613446565b9050611d5287611d06602084018461320f565b6020840135611d186040860186613109565b8080601f0160208091040260200160405190810160405280939291908181526020018383808284376000920191909152506104ce92505050565b848381518110611d6457611d646131d9565b602090810291909101015250600101611cc6565b6000803681611d8a6014828789612eca565b611d9391612ef4565b60601c9350611da6603460148789612eca565b611daf9161345c565b9250611dbe8560348189612eca565b949793965094505050565b61031e3383600084604051602401611de19190612b21565b60408051601f198184030181529190526020810180516001600160e01b0316630b9dfbed60e11b179052611674565b33600081815260208190526040902090611e2c90600190612719565b611e3581612794565b50565b8060005b8181101561170c5736848483818110611e5757611e576131d9565b9050602002810190611e699190613446565b9050611ec886611e7c602084018461320f565b6020840135611e8e6040860186613109565b8080601f01602080910402602001604051908101604052809392919081815260200183838082843760009201919091525061167492505050565b50600101611e3c565b60405163468721a760e01b81526000906001600160a01b0386169063468721a7906116a9908790859088908890600190600401612e74565b606060006001600160a01b038416600114801590611f2c5750611f2c85856120e9565b15611f5557604051637c84ecfb60e01b81526001600160a01b03851660048201526024016101b6565b82600003611f765760405163f725081760e01b815260040160405180910390fd5b826001600160401b03811115611f8e57611f8e612d3c565b604051908082528060200260200182016040528015611fb7578160200160208202803683370190505b506001600160a01b03808616600090815260208890526040812054929450911691505b6001600160a01b03821615801590611ffc57506001600160a01b038216600114155b801561200757508381105b15612061578183828151811061201f5761201f6131d9565b6001600160a01b039283166020918202929092018101919091529281166000908152928790526040909220549091169080612059816132a0565b915050611fda565b6001600160a01b038216600114612099578261207e6001836132b9565b8151811061208e5761208e6131d9565b602002602001015191505b80835250935093915050565b600060016001600160a01b0383161480159061061e5750506001600160a01b0390811660009081526020938452604080822093831682529290935291205416151590565b600060016001600160a01b038316148015906108bc5750506001600160a01b03908116600090815260209290925260409091205416151590565b60606000803681818161213a610100890189613109565b909250905061214d600660008385612eca565b6121569161347a565b60d01c9550612169600c60068385612eca565b6121729161347a565b60d01c945061218481600c8185612eca565b9350935050506000604051806101c001604052807f84aa190356f56b8c87825f54884392a9907c23ee0f8e1ea86336b763faf021bd60001b81526020018860000160208101906121d4919061320f565b6001600160a01b03168152602001886020013581526020018880604001906121fc9190613109565b60405161220a92919061314f565b604051908190039020815260200161222560608a018a613109565b60405161223392919061314f565b60405180910390208152602001612249896127f1565b815260200161225789612806565b81526020018860a00135815260200161226f89612816565b815260200161227d8961282b565b815260200161228f60e08a018a613109565b60405161229d92919061314f565b604051809103902081526020018665ffffffffffff1681526020018565ffffffffffff1681526020016122dd6f71727de22e5e9d8baf0edac6f37da03290565b6001600160a01b031690526101c08120909150601960f81b600160f81b612302611475565b6040516001600160f81b031993841660208201529290911660218301526022820152604281018290526062016040516020818303038152906040529650505091939590929450565b600060d08265ffffffffffff16901b60a08465ffffffffffff16901b85612372576000612375565b60015b60ff161717949350505050565b6001600160a01b03811615806123a157506001600160a01b0381166001145b156123ca57604051637c84ecfb60e01b81526001600160a01b03821660048201526024016101b6565b6001600160a01b038181166000908152602085815260408083208685168452909152902054161561241957604051631034f46960e21b81526001600160a01b03821660048201526024016101b6565b60016000908152602084815260408083206001600160a01b039586168085528184528285208054968816808752988552838620918652908452919093208054949095166001600160a01b031994851617909455528154169091179055565b6001600160a01b038116158061249657506001600160a01b0381166001145b156124bf57604051637c84ecfb60e01b81526001600160a01b03821660048201526024016101b6565b6001600160a01b03818116600090815260208490526040902054161561250357604051631034f46960e21b81526001600160a01b03821660048201526024016101b6565b60016000818152602093909352604080842080546001600160a01b039485168087529286208054959091166001600160a01b03199586161790559190935280549091169091179055565b6001600160a01b038116158061256c57506001600160a01b0381166001145b1561259557604051637c84ecfb60e01b81526001600160a01b03831660048201526024016101b6565b6001600160a01b0382811660009081526020868152604080832087851684529091529020548116908216146125e857604051637c84ecfb60e01b81526001600160a01b03821660048201526024016101b6565b6001600160a01b039081166000908152602085815260408083209584168084528683528184208054968616855297835281842090845282529091208054939092166001600160a01b031993841617909155919091528154169055565b6001600160a01b038116158061266357506001600160a01b0381166001145b1561268c57604051637c84ecfb60e01b81526001600160a01b03831660048201526024016101b6565b6001600160a01b038281166000908152602085905260409020548116908216146126d457604051637c84ecfb60e01b81526001600160a01b03821660048201526024016101b6565b6001600160a01b0390811660008181526020949094526040808520805494841686529085208054949093166001600160a01b0319948516179092559092528154169055565b60016000908152602083815260408083206001600160a01b038086168552925290912054161561275c576040516329e42f3360e11b815260040160405180910390fd5b60016000818152602093845260408082206001600160a01b0394909416825292909352912080546001600160a01b0319169091179055565b60016000908152602082905260409020546001600160a01b0316156127cc576040516329e42f3360e11b815260040160405180910390fd5b60016000818152602092909252604090912080546001600160a01b0319169091179055565b60006001600160801b036080830135166104bc565b60006104bc826080013560801c90565b60006001600160801b0360c0830135166104bc565b600060c082013560801c6104bc565b8284823760609190911b6bffffffffffffffffffffffff19169101908152601401919050565b6001600160a01b0381168114611e3557600080fd5b803561147081612860565b60008083601f84011261289257600080fd5b5081356001600160401b038111156128a957600080fd5b602083019150836020828501011115610aaf57600080fd5b600080600080606085870312156128d757600080fd5b8435935060208501356128e981612860565b925060408501356001600160401b0381111561290457600080fd5b61291087828801612880565b95989497509550505050565b60008060006040848603121561293157600080fd5b8335925060208401356001600160401b0381111561294e57600080fd5b61295a86828701612880565b9497909650939450505050565b6000610120828403121561297a57600080fd5b50919050565b60008060006060848603121561299557600080fd5b83356001600160401b038111156129ab57600080fd5b6129b786828701612967565b9660208601359650604090950135949350505050565b600080602083850312156129e057600080fd5b82356001600160401b038111156129f657600080fd5b612a0285828601612880565b90969095509350505050565b600060208284031215612a2057600080fd5b81356001600160401b03811115612a3657600080fd5b61061e84828501612967565b60008060408385031215612a5557600080fd5b8235612a6081612860565b946020939093013593505050565b604080825283519082018190526000906020906060840190828701845b82811015612ab05781516001600160a01b031684529284019290840190600101612a8b565b5050506001600160a01b039490941660209390930192909252509092915050565b60005b83811015612aec578181015183820152602001612ad4565b50506000910152565b60008151808452612b0d816020860160208601612ad1565b601f01601f19169290920160200192915050565b6020815260006108bc6020830184612af5565b600060208284031215612b4657600080fd5b5035919050565b600060208083016020845280855180835260408601915060408160051b87010192506020870160005b82811015612ba457603f19888603018452612b92858351612af5565b94509285019290850190600101612b76565b5092979650505050505050565b60008060408385031215612bc457600080fd5b8235612bcf81612860565b91506020830135612bdf81612860565b809150509250929050565b60008083601f840112612bfc57600080fd5b5081356001600160401b03811115612c1357600080fd5b6020830191508360208260051b8501011115610aaf57600080fd5b6000806000806000806000806080898b031215612c4a57600080fd5b88356001600160401b0380821115612c6157600080fd5b612c6d8c838d01612bea565b909a50985060208b0135915080821115612c8657600080fd5b612c928c838d01612bea565b909850965060408b0135915080821115612cab57600080fd5b612cb78c838d01612bea565b909650945060608b0135915080821115612cd057600080fd5b50612cdd8b828c01612bea565b999c989b5096995094979396929594505050565b60018060a01b0385168152836020820152608060408201526000612d186080830185612af5565b905060ff8316606083015295945050505050565b8051801515811461147057600080fd5b634e487b7160e01b600052604160045260246000fd5b604051601f8201601f191681016001600160401b0381118282101715612d7a57612d7a612d3c565b604052919050565b60006001600160401b03821115612d9b57612d9b612d3c565b50601f01601f191660200190565b6000612dbc612db784612d82565b612d52565b9050828152838383011115612dd057600080fd5b6108bc836020830184612ad1565b600082601f830112612def57600080fd5b6108bc83835160208501612da9565b60008060408385031215612e1157600080fd5b612e1a83612d2c565b915060208301516001600160401b03811115612e3557600080fd5b612e4185828601612dde565b9150509250929050565b81835281816020850137506000828201602090810191909152601f909101601f19169091010190565b60018060a01b0386168152846020820152608060408201526000612e9c608083018587612e4b565b905060ff831660608301529695505050505050565b600060208284031215612ec357600080fd5b5051919050565b60008085851115612eda57600080fd5b83861115612ee757600080fd5b5050820193919092039150565b6bffffffffffffffffffffffff198135818116916014851015612f215780818660140360031b1b83161692505b505092915050565b848152606060208201526000612f426060830186612af5565b8281036040840152612f55818587612e4b565b979650505050505050565b60018060a01b0385168152836020820152606060408201526000612f88606083018486612e4b565b9695505050505050565b6001600160e01b031981168114611e3557600080fd5b600060208284031215612fba57600080fd5b81516108bc81612f92565b6000808335601e19843603018112612fdc57600080fd5b83016020810192503590506001600160401b03811115612ffb57600080fd5b803603821315610aaf57600080fd5b6040815261302b6040820161301e85612875565b6001600160a01b03169052565b6020830135606082015260006130446040850185612fc5565b61012080608086015261305c61016086018385612e4b565b925061306b6060880188612fc5565b9250603f19808786030160a0880152613085858584612e4b565b9450608089013560c088015260a089013560e0880152610100935060c0890135848801526130b660e08a018a612fc5565b92508188870301848901526130cc868483612e4b565b9550506130db848a018a612fc5565b94509250808786030161014088015250506130f7838383612e4b565b93505050508260208301529392505050565b6000808335601e1984360301811261312057600080fd5b8301803591506001600160401b0382111561313a57600080fd5b602001915036819003821315610aaf57600080fd5b8183823760009101908152919050565b60006020828403121561317157600080fd5b81516001600160401b0381111561318757600080fd5b8201601f8101841361319857600080fd5b61061e84825160208401612da9565b600082516131b9818460208701612ad1565b6d0657263373537392e76302e302e360941b920191825250600e01919050565b634e487b7160e01b600052603260045260246000fd5b60008235603e1983360301811261320557600080fd5b9190910192915050565b60006020828403121561322157600080fd5b81356108bc81612860565b60006020828403121561323e57600080fd5b81356108bc81612f92565b82815260008251613261816020850160208701612ad1565b919091016020019392505050565b60006020828403121561328157600080fd5b6108bc82612d2c565b634e487b7160e01b600052601160045260246000fd5b6000600182016132b2576132b261328a565b5060010190565b818103818111156104bc576104bc61328a565b60208152600061061e602083018486612e4b565b600082601f8301126132f157600080fd5b81356132ff612db782612d82565b81815284602083860101111561331457600080fd5b816020850160208301376000918101602001919091529392505050565b60008060006060848603121561334657600080fd5b833561335181612f92565b925060208401356001600160f81b03198116811461336e57600080fd5b915060408401356001600160401b0381111561338957600080fd5b613395868287016132e0565b9150509250925092565b600080604083850312156133b257600080fd5b82356133bd81612860565b915060208301356001600160401b038111156133d857600080fd5b612e41858286016132e0565b6001600160a01b03841681526040602082018190526000906134099083018486612e4b565b95945050505050565b60006020828403121561342457600080fd5b81516001600160401b0381111561343a57600080fd5b61061e84828501612dde565b60008235605e1983360301811261320557600080fd5b803560208310156104bc57600019602084900360031b1b1692915050565b6001600160d01b03198135818116916006851015612f215760069490940360031b84901b169092169291505056fea264697066735822122079254d5a22dce2cdf7cedb55d1680282c4b38d6c8ad2d94be1bcc93efc0f2c4464736f6c63430008180033","linkReferences":{}},"methodIdentifiers":{"accountId()":"9cfd7cff","domainSeparator()":"f698da25","entryPoint()":"b0d691fe","execute(bytes32,bytes)":"e9ae5c53","executeFromExecutor(bytes32,bytes)":"d691c964","executeUserOp((address,uint256,bytes,bytes,bytes32,uint256,bytes32,bytes,bytes))":"72aea654","getActiveHook()":"0a664dba","getExecutorsPaginated(address,uint256)":"ea5f61d0","getNonce(address,address)":"d828435d","getValidatorPaginated(address,uint256)":"85571368","initializeAccount((address,bytes)[],(address,bytes)[],(address,bytes)[],(address,bytes)[])":"e130ecad","initializeAccount(bytes)":"4b6a1419","installModule(uint256,address,bytes)":"9517e29f","isModuleInstalled(uint256,address,bytes)":"112d3a7d","isValidSignature(bytes32,bytes)":"1626ba7e","supportsExecutionMode(bytes32)":"d03c7914","supportsModule(uint256)":"f2dc691d","uninstallModule(uint256,address,bytes)":"a71763a8","validateUserOp((address,uint256,bytes,bytes,bytes32,uint256,bytes32,bytes,bytes),bytes32,uint256)":"19822f7c"},"id":75}