{"abi":[{"type":"function","name":"getGasConsumed","inputs":[{"name":"account","type":"address","internalType":"address"},{"name":"phase","type":"uint256","internalType":"uint256"}],"outputs":[{"name":"","type":"uint256","internalType":"uint256"}],"stateMutability":"view"}],"bytecode":{"object":"0x608060405234801561001057600080fd5b5060dc8061001f6000396000f3fe6080604052348015600f57600080fd5b506004361060285760003560e01c8063ee5a97c814602d575b600080fd5b605e60383660046070565b6001600160a01b0391909116600090815260208181526040808320938352929052205490565b60405190815260200160405180910390f35b60008060408385031215608257600080fd5b82356001600160a01b0381168114609857600080fd5b94602093909301359350505056fea2646970667358221220fdfe07310dface8b6a939f16c94c54c786145fca43ff51b485c602e02cf6320764736f6c63430008180033","linkReferences":{}},"methodIdentifiers":{"getGasConsumed(address,uint256)":"ee5a97c8"},"id":2}