{"abi":[{"type":"function","name":"isInitialized","inputs":[{"name":"smartAccount","type":"address","internalType":"address"}],"outputs":[{"name":"","type":"bool","internalType":"bool"}],"stateMutability":"view"},{"type":"function","name":"isModuleType","inputs":[{"name":"typeID","type":"uint256","internalType":"uint256"}],"outputs":[{"name":"","type":"bool","internalType":"bool"}],"stateMutability":"view"},{"type":"function","name":"onInstall","inputs":[{"name":"data","type":"bytes","internalType":"bytes"}],"outputs":[],"stateMutability":"nonpayable"},{"type":"function","name":"onUninstall","inputs":[{"name":"data","type":"bytes","internalType":"bytes"}],"outputs":[],"stateMutability":"nonpayable"},{"type":"function","name":"target","inputs":[{"name":"value","type":"uint256","internalType":"uint256"}],"outputs":[{"name":"_value","type":"uint256","internalType":"uint256"},{"name":"msgSender","type":"address","internalType":"address"},{"name":"msgSenderContext","type":"address","internalType":"address"}],"stateMutability":"nonpayable"},{"type":"function","name":"target2","inputs":[{"name":"value","type":"uint256","internalType":"uint256"}],"outputs":[{"name":"_value","type":"uint256","internalType":"uint256"},{"name":"_this","type":"address","internalType":"address"},{"name":"msgSender","type":"address","internalType":"address"}],"stateMutability":"nonpayable"},{"type":"function","name":"targetFunction","inputs":[],"outputs":[{"name":"","type":"bool","internalType":"bool"}],"stateMutability":"nonpayable"},{"type":"error","name":"AlreadyInitialized","inputs":[{"name":"smartAccount","type":"address","internalType":"address"}]},{"type":"error","name":"NotInitialized","inputs":[{"name":"smartAccount","type":"address","internalType":"address"}]}],"bytecode":{"object":"0x608060405234801561001057600080fd5b5061021e806100206000396000f3fe608060405234801561001057600080fd5b506004361061007d5760003560e01c8063a341a91b1161005b578063a341a91b146100dd578063d60b347f146100f0578063ea0fe80914610104578063ecd059611461011957600080fd5b80636d61fe70146100825780638a91b0e3146100825780639811c7c114610096575b600080fd5b61009461009036600461012d565b5050565b005b6100b36100a436600461019f565b90339060131936013560601c90565b604080519384526001600160a01b0392831660208501529116908201526060015b60405180910390f35b60015b60405190151581526020016100d4565b6100e06100fe3660046101b8565b50600090565b6100b361011236600461019f565b9030903390565b6100e061012736600461019f565b60031490565b6000806020838503121561014057600080fd5b823567ffffffffffffffff8082111561015857600080fd5b818501915085601f83011261016c57600080fd5b81358181111561017b57600080fd5b86602082850101111561018d57600080fd5b60209290920196919550909350505050565b6000602082840312156101b157600080fd5b5035919050565b6000602082840312156101ca57600080fd5b81356001600160a01b03811681146101e157600080fd5b939250505056fea2646970667358221220b20dfe3f5f9aee3d2bf589ff74d2fc4477939b5d56e6abfcc8ef12cbf8e2b2f564736f6c63430008180033","linkReferences":{}},"methodIdentifiers":{"isInitialized(address)":"d60b347f","isModuleType(uint256)":"ecd05961","onInstall(bytes)":"6d61fe70","onUninstall(bytes)":"8a91b0e3","target(uint256)":"9811c7c1","target2(uint256)":"ea0fe809","targetFunction()":"a341a91b"},"id":114}