{"abi":[{"type":"function","name":"isInitialized","inputs":[{"name":"smartAccount","type":"address","internalType":"address"}],"outputs":[{"name":"","type":"bool","internalType":"bool"}],"stateMutability":"pure"},{"type":"function","name":"isModuleType","inputs":[{"name":"typeID","type":"uint256","internalType":"uint256"}],"outputs":[{"name":"","type":"bool","internalType":"bool"}],"stateMutability":"pure"},{"type":"function","name":"isValidSignatureWithSender","inputs":[{"name":"sender","type":"address","internalType":"address"},{"name":"hash","type":"bytes32","internalType":"bytes32"},{"name":"data","type":"bytes","internalType":"bytes"}],"outputs":[{"name":"","type":"bytes4","internalType":"bytes4"}],"stateMutability":"view"},{"type":"function","name":"onInstall","inputs":[{"name":"data","type":"bytes","internalType":"bytes"}],"outputs":[],"stateMutability":"nonpayable"},{"type":"function","name":"onUninstall","inputs":[{"name":"data","type":"bytes","internalType":"bytes"}],"outputs":[],"stateMutability":"nonpayable"},{"type":"function","name":"validateUserOp","inputs":[{"name":"userOp","type":"tuple","internalType":"struct PackedUserOperation","components":[{"name":"sender","type":"address","internalType":"address"},{"name":"nonce","type":"uint256","internalType":"uint256"},{"name":"initCode","type":"bytes","internalType":"bytes"},{"name":"callData","type":"bytes","internalType":"bytes"},{"name":"accountGasLimits","type":"bytes32","internalType":"bytes32"},{"name":"preVerificationGas","type":"uint256","internalType":"uint256"},{"name":"gasFees","type":"bytes32","internalType":"bytes32"},{"name":"paymasterAndData","type":"bytes","internalType":"bytes"},{"name":"signature","type":"bytes","internalType":"bytes"}]},{"name":"userOpHash","type":"bytes32","internalType":"bytes32"}],"outputs":[{"name":"","type":"uint256","internalType":"ERC7579ValidatorBase.ValidationData"}],"stateMutability":"nonpayable"},{"type":"error","name":"AlreadyInitialized","inputs":[{"name":"smartAccount","type":"address","internalType":"address"}]},{"type":"error","name":"NotInitialized","inputs":[{"name":"smartAccount","type":"address","internalType":"address"}]}],"bytecode":{"object":"0x608060405234801561001057600080fd5b506103a1806100206000396000f3fe608060405234801561001057600080fd5b50600436106100625760003560e01c80636d61fe70146100675780638a91b0e314610067578063970032031461007b578063d60b347f146100a1578063ecd05961146100c5578063f551e2ee146100d9575b600080fd5b61007961007536600461018c565b5050565b005b61008e6100893660046101ce565b610110565b6040519081526020015b60405180910390f35b6100b56100af366004610235565b50600090565b6040519015158152602001610098565b6100b56100d3366004610257565b60011490565b6100f76100e7366004610270565b630b135d3f60e11b949350505050565b6040516001600160e01b03199091168152602001610098565b60008061012060608501856102ca565b61012f91600491600091610311565b6101389161033b565b506000949350505050565b60008083601f84011261015557600080fd5b50813567ffffffffffffffff81111561016d57600080fd5b60208301915083602082850101111561018557600080fd5b9250929050565b6000806020838503121561019f57600080fd5b823567ffffffffffffffff8111156101b657600080fd5b6101c285828601610143565b90969095509350505050565b600080604083850312156101e157600080fd5b823567ffffffffffffffff8111156101f857600080fd5b8301610120818603121561020b57600080fd5b946020939093013593505050565b80356001600160a01b038116811461023057600080fd5b919050565b60006020828403121561024757600080fd5b61025082610219565b9392505050565b60006020828403121561026957600080fd5b5035919050565b6000806000806060858703121561028657600080fd5b61028f85610219565b935060208501359250604085013567ffffffffffffffff8111156102b257600080fd5b6102be87828801610143565b95989497509550505050565b6000808335601e198436030181126102e157600080fd5b83018035915067ffffffffffffffff8211156102fc57600080fd5b60200191503681900382131561018557600080fd5b6000808585111561032157600080fd5b8386111561032e57600080fd5b5050820193919092039150565b6001600160e01b031981358181169160048510156103635780818660040360031b1b83161692505b50509291505056fea2646970667358221220b67cd2b1c6a4d40d1a68374952c461141dcb9cfbab9a3e89089b6c00860621d364736f6c63430008180033","linkReferences":{}},"methodIdentifiers":{"isInitialized(address)":"d60b347f","isModuleType(uint256)":"ecd05961","isValidSignatureWithSender(address,bytes32,bytes)":"f551e2ee","onInstall(bytes)":"6d61fe70","onUninstall(bytes)":"8a91b0e3","validateUserOp((address,uint256,bytes,bytes,bytes32,uint256,bytes32,bytes,bytes),bytes32)":"97003203"},"id":91}