{"abi":[{"type":"function","name":"exec","inputs":[{"name":"account","type":"address","internalType":"address"},{"name":"to","type":"address","internalType":"address"},{"name":"value","type":"uint256","internalType":"uint256"},{"name":"callData","type":"bytes","internalType":"bytes"}],"outputs":[{"name":"","type":"bytes","internalType":"bytes"}],"stateMutability":"nonpayable"},{"type":"function","name":"isInitialized","inputs":[{"name":"smartAccount","type":"address","internalType":"address"}],"outputs":[{"name":"","type":"bool","internalType":"bool"}],"stateMutability":"pure"},{"type":"function","name":"isModuleType","inputs":[{"name":"typeID","type":"uint256","internalType":"uint256"}],"outputs":[{"name":"","type":"bool","internalType":"bool"}],"stateMutability":"pure"},{"type":"function","name":"onInstall","inputs":[{"name":"data","type":"bytes","internalType":"bytes"}],"outputs":[],"stateMutability":"nonpayable"},{"type":"function","name":"onUninstall","inputs":[{"name":"data","type":"bytes","internalType":"bytes"}],"outputs":[],"stateMutability":"nonpayable"},{"type":"error","name":"AlreadyInitialized","inputs":[{"name":"smartAccount","type":"address","internalType":"address"}]},{"type":"error","name":"NotInitialized","inputs":[{"name":"smartAccount","type":"address","internalType":"address"}]}],"bytecode":{"object":"0x608060405234801561001057600080fd5b50610654806100206000396000f3fe608060405234801561001057600080fd5b50600436106100575760003560e01c806328b7b0361461005c5780636d61fe70146100855780638a91b0e314610085578063d60b347f14610099578063ecd05961146100bd575b600080fd5b61006f61006a3660046102d4565b6100d1565b60405161007c9190610393565b60405180910390f35b6100976100933660046103ad565b5050565b005b6100ad6100a73660046103ef565b50600090565b604051901515815260200161007c565b6100ad6100cb36600461040a565b60021490565b606061011586868686868080601f01602080910402602001604051908101604052809392919081815260200183838082843760009201919091525061011f92505050565b9695505050505050565b6060600061012f818080806101d5565b9050856001600160a01b031663d691c9648261014c888888610240565b6040518363ffffffff1660e01b8152600401610169929190610423565b6000604051808303816000875af1158015610188573d6000803e3d6000fd5b505050506040513d6000823e601f3d908101601f191682016040526101b0919081019061048b565b6000815181106101c2576101c26105a2565b6020026020010151915050949350505050565b604080516001600160f81b03198087166020830152851660218201526000602282018190526001600160e01b03198516602683015269ffffffffffffffffffff198416602a8301529101604051602081830303815290604052610237906105b8565b95945050505050565b6060838383604051602001610257939291906105df565b60405160208183030381529060405290509392505050565b80356001600160a01b038116811461028657600080fd5b919050565b60008083601f84011261029d57600080fd5b50813567ffffffffffffffff8111156102b557600080fd5b6020830191508360208285010111156102cd57600080fd5b9250929050565b6000806000806000608086880312156102ec57600080fd5b6102f58661026f565b94506103036020870161026f565b935060408601359250606086013567ffffffffffffffff81111561032657600080fd5b6103328882890161028b565b969995985093965092949392505050565b60005b8381101561035e578181015183820152602001610346565b50506000910152565b6000815180845261037f816020860160208601610343565b601f01601f19169290920160200192915050565b6020815260006103a66020830184610367565b9392505050565b600080602083850312156103c057600080fd5b823567ffffffffffffffff8111156103d757600080fd5b6103e38582860161028b565b90969095509350505050565b60006020828403121561040157600080fd5b6103a68261026f565b60006020828403121561041c57600080fd5b5035919050565b82815260406020820152600061043c6040830184610367565b949350505050565b634e487b7160e01b600052604160045260246000fd5b604051601f8201601f1916810167ffffffffffffffff8111828210171561048357610483610444565b604052919050565b6000602080838503121561049e57600080fd5b825167ffffffffffffffff808211156104b657600080fd5b8185019150601f86601f8401126104cc57600080fd5b8251828111156104de576104de610444565b8060051b6104ed86820161045a565b918252848101860191868101908a84111561050757600080fd5b87870192505b83831015610594578251868111156105255760008081fd5b8701603f81018c136105375760008081fd5b8881015160408882111561054d5761054d610444565b61055e828901601f19168c0161045a565b8281528e828486010111156105735760008081fd5b610582838d8301848701610343565b8552505050918701919087019061050d565b9a9950505050505050505050565b634e487b7160e01b600052603260045260246000fd5b805160208083015191908110156105d9576000198160200360031b1b821691505b50919050565b6bffffffffffffffffffffffff198460601b1681528260148201526000825161060f816034850160208701610343565b9190910160340194935050505056fea2646970667358221220b38b202c650da23a79d35ff13d9d1932d2423c7a95ef8b72d6c819f673643ca864736f6c63430008180033","linkReferences":{}},"methodIdentifiers":{"exec(address,address,uint256,bytes)":"28b7b036","isInitialized(address)":"d60b347f","isModuleType(uint256)":"ecd05961","onInstall(bytes)":"6d61fe70","onUninstall(bytes)":"8a91b0e3"},"id":27}