{"abi":[{"type":"fallback","stateMutability":"payable"},{"type":"receive","stateMutability":"payable"},{"type":"function","name":"_getInitMSACalldata","inputs":[{"name":"_validators","type":"tuple[]","internalType":"struct BootstrapConfig[]","components":[{"name":"module","type":"address","internalType":"address"},{"name":"data","type":"bytes","internalType":"bytes"}]},{"name":"_executors","type":"tuple[]","internalType":"struct BootstrapConfig[]","components":[{"name":"module","type":"address","internalType":"address"},{"name":"data","type":"bytes","internalType":"bytes"}]},{"name":"_hook","type":"tuple","internalType":"struct BootstrapConfig","components":[{"name":"module","type":"address","internalType":"address"},{"name":"data","type":"bytes","internalType":"bytes"}]},{"name":"_fallback","type":"tuple","internalType":"struct BootstrapConfig","components":[{"name":"module","type":"address","internalType":"address"},{"name":"data","type":"bytes","internalType":"bytes"}]}],"outputs":[{"name":"init","type":"bytes","internalType":"bytes"}],"stateMutability":"view"},{"type":"function","name":"entryPoint","inputs":[],"outputs":[{"name":"","type":"address","internalType":"address"}],"stateMutability":"view"},{"type":"function","name":"getActiveFallbackHandler","inputs":[],"outputs":[{"name":"","type":"address","internalType":"address"}],"stateMutability":"view"},{"type":"function","name":"getActiveHook","inputs":[],"outputs":[{"name":"hook","type":"address","internalType":"address"}],"stateMutability":"view"},{"type":"function","name":"getExecutorsPaginated","inputs":[{"name":"cursor","type":"address","internalType":"address"},{"name":"size","type":"uint256","internalType":"uint256"}],"outputs":[{"name":"array","type":"address[]","internalType":"address[]"},{"name":"next","type":"address","internalType":"address"}],"stateMutability":"view"},{"type":"function","name":"getValidatorPaginated","inputs":[{"name":"cursor","type":"address","internalType":"address"},{"name":"size","type":"uint256","internalType":"uint256"}],"outputs":[{"name":"array","type":"address[]","internalType":"address[]"},{"name":"next","type":"address","internalType":"address"}],"stateMutability":"view"},{"type":"function","name":"initMSA","inputs":[{"name":"_validators","type":"tuple[]","internalType":"struct BootstrapConfig[]","components":[{"name":"module","type":"address","internalType":"address"},{"name":"data","type":"bytes","internalType":"bytes"}]},{"name":"_executors","type":"tuple[]","internalType":"struct BootstrapConfig[]","components":[{"name":"module","type":"address","internalType":"address"},{"name":"data","type":"bytes","internalType":"bytes"}]},{"name":"_hook","type":"tuple","internalType":"struct BootstrapConfig","components":[{"name":"module","type":"address","internalType":"address"},{"name":"data","type":"bytes","internalType":"bytes"}]},{"name":"_fallback","type":"tuple","internalType":"struct BootstrapConfig","components":[{"name":"module","type":"address","internalType":"address"},{"name":"data","type":"bytes","internalType":"bytes"}]}],"outputs":[],"stateMutability":"nonpayable"},{"type":"function","name":"singleInitMSA","inputs":[{"name":"validator","type":"address","internalType":"contract IModule"},{"name":"data","type":"bytes","internalType":"bytes"}],"outputs":[],"stateMutability":"nonpayable"},{"type":"error","name":"AccountAccessUnauthorized","inputs":[]},{"type":"error","name":"CannotRemoveLastValidator","inputs":[]},{"type":"error","name":"HookAlreadyInstalled","inputs":[{"name":"currentHook","type":"address","internalType":"address"}]},{"type":"error","name":"HookPostCheckFailed","inputs":[]},{"type":"error","name":"InvalidModule","inputs":[{"name":"module","type":"address","internalType":"address"}]},{"type":"error","name":"LinkedList_EntryAlreadyInList","inputs":[{"name":"entry","type":"address","internalType":"address"}]},{"type":"error","name":"LinkedList_InvalidEntry","inputs":[{"name":"entry","type":"address","internalType":"address"}]},{"type":"error","name":"LinkedList_InvalidPage","inputs":[]}],"bytecode":{"object":"0x608060405234801561001057600080fd5b50610f92806100206000396000f3fe60806040526004361061007f5760003560e01c80638acf4c6a1161004e5780638acf4c6a146101c8578063b0d691fe146101f3578063bd5a01da14610216578063ea5f61d01461024357610086565b80630a664dba146101265780630ff2fe98146101585780636b0d5cc41461017a578063855713681461019a57610086565b3661008657005b60003560e01c63bc197c81811463f23a6e6182141763150b7a02821417156100b257806020526020603cf35b50600080516020610f3d833981519152546001600160a01b0316806100d657600080fd5b60408051368101909152366000823760408051601481019091523360601b9052600080366014018382865af190506101143d60408051918201905290565b3d6000823e81610122573d81fd5b3d81f35b34801561013257600080fd5b5061013b610263565b6040516001600160a01b0390911681526020015b60405180910390f35b34801561016457600080fd5b50610178610173366004610a5b565b610292565b005b34801561018657600080fd5b50610178610195366004610b2a565b61045a565b3480156101a657600080fd5b506101ba6101b5366004610baf565b61046a565b60405161014f929190610bdb565b3480156101d457600080fd5b50600080516020610f3d833981519152546001600160a01b031661013b565b3480156101ff57600080fd5b506f71727de22e5e9d8baf0edac6f37da03261013b565b34801561022257600080fd5b50610236610231366004610a5b565b6104a7565b60405161014f9190610c84565b34801561024f57600080fd5b506101ba61025e366004610baf565b61052d565b600061028d7f36e05829dd1b9a4411d96a3549582172d7f071c1c0db5c573fcf94eb284316085490565b905090565b60005b85811015610311576103098787838181106102b2576102b2610c97565b90506020028101906102c49190610cad565b6102d2906020810190610ccd565b8888848181106102e4576102e4610c97565b90506020028101906102f69190610cad565b610304906020810190610cf1565b61055d565b600101610295565b5060005b838110156103d357600085858381811061033157610331610c97565b90506020028101906103439190610cad565b610351906020810190610ccd565b6001600160a01b0316146103cb576103cb85858381811061037457610374610c97565b90506020028101906103869190610cad565b610394906020810190610ccd565b8686848181106103a6576103a6610c97565b90506020028101906103b89190610cad565b6103c6906020810190610cf1565b6105ee565b600101610315565b5060006103e36020840184610ccd565b6001600160a01b031614610413576104136104016020840184610ccd565b61040e6020850185610cf1565b610619565b60006104226020830183610ccd565b6001600160a01b031614610452576104526104406020830183610ccd565b61044d6020840184610cf1565b6106a5565b505050505050565b61046583838361055d565b505050565b606060007ff88ce1fdb7fb1cbd3282e49729100fa3f2d6ee9f797961fe4fb1871cea89ea0261049a81868661074d565b92509250505b9250929050565b606030306001600160a01b0316630ff2fe988989898989896040516024016104d496959493929190610e48565b604051602081830303815290604052915060e01b6020820180516001600160e01b038381831617835250505050604051602001610512929190610ea4565b60405160208183030381529060405290509695505050505050565b606060007ff88ce1fdb7fb1cbd3282e49729100fa3f2d6ee9f797961fe4fb1871cea89ea0361049a81868661074d565b7ff88ce1fdb7fb1cbd3282e49729100fa3f2d6ee9f797961fe4fb1871cea89ea0261058881856108ea565b6040516306d61fe760e41b81526001600160a01b03851690636d61fe70906105b69086908690600401610ed0565b600060405180830381600087803b1580156105d057600080fd5b505af11580156105e4573d6000803e3d6000fd5b5050505050505050565b7ff88ce1fdb7fb1cbd3282e49729100fa3f2d6ee9f797961fe4fb1871cea89ea0361058881856108ea565b60006106437f36e05829dd1b9a4411d96a3549582172d7f071c1c0db5c573fcf94eb284316085490565b90506001600160a01b0381161561067d5760405163741cbe0360e01b81526001600160a01b03821660048201526024015b60405180910390fd5b610588847f36e05829dd1b9a4411d96a3549582172d7f071c1c0db5c573fcf94eb2843160855565b600080516020610f3d833981519152546001600160a01b0316156106c857600080fd5b600080516020610f3d83398151915280546001600160a01b0319166001600160a01b0385169081179091556040516306d61fe760e41b8152636d61fe70906107169085908590600401610ed0565b600060405180830381600087803b15801561073057600080fd5b505af1158015610744573d6000803e3d6000fd5b50505050505050565b606060006001600160a01b038416600114801590610770575061077085856109c0565b1561079957604051637c84ecfb60e01b81526001600160a01b0385166004820152602401610674565b826000036107ba5760405163f725081760e01b815260040160405180910390fd5b8267ffffffffffffffff8111156107d3576107d3610ee4565b6040519080825280602002602001820160405280156107fc578160200160208202803683370190505b506001600160a01b03808616600090815260208890526040812054929450911691505b6001600160a01b0382161580159061084157506001600160a01b038216600114155b801561084c57508381105b156108a6578183828151811061086457610864610c97565b6001600160a01b03928316602091820292909201810191909152928116600090815292879052604090922054909116908061089e81610f10565b91505061081f565b6001600160a01b0382166001146108de57826108c3600183610f29565b815181106108d3576108d3610c97565b602002602001015191505b80835250935093915050565b6001600160a01b038116158061090957506001600160a01b0381166001145b1561093257604051637c84ecfb60e01b81526001600160a01b0382166004820152602401610674565b6001600160a01b03818116600090815260208490526040902054161561097657604051631034f46960e21b81526001600160a01b0382166004820152602401610674565b60016000818152602093909352604080842080546001600160a01b039485168087529286208054959091166001600160a01b03199586161790559190935280549091169091179055565b600060016001600160a01b038316148015906109f557506001600160a01b038281166000908152602085905260409020541615155b90505b92915050565b60008083601f840112610a1057600080fd5b50813567ffffffffffffffff811115610a2857600080fd5b6020830191508360208260051b85010111156104a057600080fd5b600060408284031215610a5557600080fd5b50919050565b60008060008060008060808789031215610a7457600080fd5b863567ffffffffffffffff80821115610a8c57600080fd5b610a988a838b016109fe565b90985096506020890135915080821115610ab157600080fd5b610abd8a838b016109fe565b90965094506040890135915080821115610ad657600080fd5b610ae28a838b01610a43565b93506060890135915080821115610af857600080fd5b50610b0589828a01610a43565b9150509295509295509295565b6001600160a01b0381168114610b2757600080fd5b50565b600080600060408486031215610b3f57600080fd5b8335610b4a81610b12565b9250602084013567ffffffffffffffff80821115610b6757600080fd5b818601915086601f830112610b7b57600080fd5b813581811115610b8a57600080fd5b876020828501011115610b9c57600080fd5b6020830194508093505050509250925092565b60008060408385031215610bc257600080fd5b8235610bcd81610b12565b946020939093013593505050565b604080825283519082018190526000906020906060840190828701845b82811015610c1d5781516001600160a01b031684529284019290840190600101610bf8565b5050506001600160a01b039490941660209390930192909252509092915050565b6000815180845260005b81811015610c6457602081850181015186830182015201610c48565b506000602082860101526020601f19601f83011685010191505092915050565b6020815260006109f56020830184610c3e565b634e487b7160e01b600052603260045260246000fd5b60008235603e19833603018112610cc357600080fd5b9190910192915050565b600060208284031215610cdf57600080fd5b8135610cea81610b12565b9392505050565b6000808335601e19843603018112610d0857600080fd5b83018035915067ffffffffffffffff821115610d2357600080fd5b6020019150368190038213156104a057600080fd5b81835281816020850137506000828201602090810191909152601f909101601f19169091010190565b60008135610d6e81610b12565b6001600160a01b03168352602082013536839003601e19018112610d9157600080fd5b820160208101903567ffffffffffffffff811115610dae57600080fd5b803603821315610dbd57600080fd5b60406020860152610dd2604086018284610d38565b95945050505050565b6000838385526020808601955060208560051b830101846000805b88811015610e3a57858403601f19018a52823536899003603e19018112610e1b578283fd5b610e27858a8301610d61565b9a86019a94505091840191600101610df6565b509198975050505050505050565b608081526000610e5c60808301888a610ddb565b8281036020840152610e6f818789610ddb565b90508281036040840152610e838186610d61565b90508281036060840152610e978185610d61565b9998505050505050505050565b6001600160a01b0383168152604060208201819052600090610ec890830184610c3e565b949350505050565b602081526000610ec8602083018486610d38565b634e487b7160e01b600052604160045260246000fd5b634e487b7160e01b600052601160045260246000fd5b600060018201610f2257610f22610efa565b5060010190565b818103818111156109f8576109f8610efa56fef88ce1fdb7fb1cbd3282e49729100fa3f2d6ee9f797961fe4fb1871cea89ea04a2646970667358221220c13158907d0a6b8a2f73a4f5a1fec6f0bff3fc84dae0857d59aa197ecc3e6cf064736f6c63430008180033","linkReferences":{}},"methodIdentifiers":{"_getInitMSACalldata((address,bytes)[],(address,bytes)[],(address,bytes),(address,bytes))":"bd5a01da","entryPoint()":"b0d691fe","getActiveFallbackHandler()":"8acf4c6a","getActiveHook()":"0a664dba","getExecutorsPaginated(address,uint256)":"ea5f61d0","getValidatorPaginated(address,uint256)":"85571368","initMSA((address,bytes)[],(address,bytes)[],(address,bytes),(address,bytes))":"0ff2fe98","singleInitMSA(address,bytes)":"6b0d5cc4"},"id":72}