{"abi":[{"type":"constructor","inputs":[{"name":"_safe7579Singleton","type":"address","internalType":"address"}],"stateMutability":"nonpayable"},{"type":"function","name":"getInitCode","inputs":[{"name":"signers","type":"address[]","internalType":"address[]"},{"name":"threshold","type":"uint256","internalType":"uint256"},{"name":"validators","type":"tuple[]","internalType":"struct ISafe7579Init.ModuleInit[]","components":[{"name":"module","type":"address","internalType":"address"},{"name":"initData","type":"bytes","internalType":"bytes"}]},{"name":"executors","type":"tuple[]","internalType":"struct ISafe7579Init.ModuleInit[]","components":[{"name":"module","type":"address","internalType":"address"},{"name":"initData","type":"bytes","internalType":"bytes"}]},{"name":"fallbacks","type":"tuple[]","internalType":"struct ISafe7579Init.ModuleInit[]","components":[{"name":"module","type":"address","internalType":"address"},{"name":"initData","type":"bytes","internalType":"bytes"}]},{"name":"hooks","type":"tuple[]","internalType":"struct ISafe7579Init.ModuleInit[]","components":[{"name":"module","type":"address","internalType":"address"},{"name":"initData","type":"bytes","internalType":"bytes"}]}],"outputs":[{"name":"initCode","type":"bytes","internalType":"bytes"}],"stateMutability":"view"},{"type":"function","name":"initSafe7579","inputs":[{"name":"safe7579","type":"address","internalType":"address"},{"name":"validators","type":"tuple[]","internalType":"struct ISafe7579Init.ModuleInit[]","components":[{"name":"module","type":"address","internalType":"address"},{"name":"initData","type":"bytes","internalType":"bytes"}]},{"name":"executors","type":"tuple[]","internalType":"struct ISafe7579Init.ModuleInit[]","components":[{"name":"module","type":"address","internalType":"address"},{"name":"initData","type":"bytes","internalType":"bytes"}]},{"name":"fallbacks","type":"tuple[]","internalType":"struct ISafe7579Init.ModuleInit[]","components":[{"name":"module","type":"address","internalType":"address"},{"name":"initData","type":"bytes","internalType":"bytes"}]},{"name":"hooks","type":"tuple[]","internalType":"struct ISafe7579Init.ModuleInit[]","components":[{"name":"module","type":"address","internalType":"address"},{"name":"initData","type":"bytes","internalType":"bytes"}]}],"outputs":[],"stateMutability":"nonpayable"},{"type":"function","name":"predictSafeAddress","inputs":[{"name":"singleton","type":"address","internalType":"address"},{"name":"safeProxyFactory","type":"address","internalType":"address"},{"name":"creationCode","type":"bytes","internalType":"bytes"},{"name":"salt","type":"bytes32","internalType":"bytes32"},{"name":"initializer","type":"bytes","internalType":"bytes"}],"outputs":[{"name":"safeProxy","type":"address","internalType":"address"}],"stateMutability":"pure"}],"bytecode":{"object":"0x60a060405234801561001057600080fd5b50604051610b25380380610b2583398101604081905261002f91610040565b6001600160a01b0316608052610070565b60006020828403121561005257600080fd5b81516001600160a01b038116811461006957600080fd5b9392505050565b608051610a946100916000396000818160c401526101380152610a946000f3fe608060405234801561001057600080fd5b50600436106100415760003560e01c806350ba8cf014610046578063663c87d81461006f578063b2ceef491461009a575b600080fd5b610059610054366004610492565b6100af565b60405161006691906105d7565b60405180910390f35b61008261007d366004610661565b6101ad565b6040516001600160a01b039091168152602001610066565b6100ad6100a83660046106f0565b61028c565b005b60606000306001600160a01b031663b2ceef497f00000000000000000000000000000000000000000000000000000000000000008c8c8c8c8c8c8c8c604051602401610103999897969594939291906108a6565b604051602081830303815290604052915060e01b6020820180516001600160e01b03838183161783525050505090508b8b30837f00000000000000000000000000000000000000000000000000000000000000006000806000604051602401610173989796959493929190610918565b60408051601f198184030181529190526020810180516001600160e01b031663b63e800d60e01b1790529c9b505050505050505050505050565b60008180519060200120836040516020016101d2929190918252602082015260400190565b60405160208183030381529060405280519060200120925060ff60f81b858486896001600160a01b031660405160200161020d9291906109dc565b6040516020818303038152906040528051906020012060405160200161026a94939291906001600160f81b031994909416845260609290921b6bffffffffffffffffffffffff191660018401526015830152603582015260550190565b60408051601f1981840301815291905280516020909101209695505050505050565b60405163610b592560e01b81526001600160a01b038a166004820152309063610b592590602401600060405180830381600087803b1580156102cd57600080fd5b505af11580156102e1573d6000803e3d6000fd5b505060405163e130ecad60e01b81526001600160a01b038c16925063e130ecad915061031f908b908b908b908b908b908b908b908b906004016109fe565b600060405180830381600087803b15801561033957600080fd5b505af115801561034d573d6000803e3d6000fd5b50505050505050505050505050565b634e487b7160e01b600052604160045260246000fd5b604051601f8201601f1916810167ffffffffffffffff8111828210171561039b5761039b61035c565b604052919050565b80356001600160a01b03811681146103ba57600080fd5b919050565b600082601f8301126103d057600080fd5b8135602067ffffffffffffffff8211156103ec576103ec61035c565b8160051b6103fb828201610372565b928352848101820192828101908785111561041557600080fd5b83870192505b8483101561043b5761042c836103a3565b8252918301919083019061041b565b979650505050505050565b60008083601f84011261045857600080fd5b50813567ffffffffffffffff81111561047057600080fd5b6020830191508360208260051b850101111561048b57600080fd5b9250929050565b60008060008060008060008060008060c08b8d0312156104b157600080fd5b8a3567ffffffffffffffff808211156104c957600080fd5b6104d58e838f016103bf565b9b5060208d01359a5060408d01359150808211156104f257600080fd5b6104fe8e838f01610446565b909a50985060608d013591508082111561051757600080fd5b6105238e838f01610446565b909850965060808d013591508082111561053c57600080fd5b6105488e838f01610446565b909650945060a08d013591508082111561056157600080fd5b5061056e8d828e01610446565b915080935050809150509295989b9194979a5092959850565b60005b838110156105a257818101518382015260200161058a565b50506000910152565b600081518084526105c3816020860160208601610587565b601f01601f19169290920160200192915050565b6020815260006105ea60208301846105ab565b9392505050565b600082601f83011261060257600080fd5b813567ffffffffffffffff81111561061c5761061c61035c565b61062f601f8201601f1916602001610372565b81815284602083860101111561064457600080fd5b816020850160208301376000918101602001919091529392505050565b600080600080600060a0868803121561067957600080fd5b610682866103a3565b9450610690602087016103a3565b9350604086013567ffffffffffffffff808211156106ad57600080fd5b6106b989838a016105f1565b94506060880135935060808801359150808211156106d657600080fd5b506106e3888289016105f1565b9150509295509295909350565b600080600080600080600080600060a08a8c03121561070e57600080fd5b6107178a6103a3565b985060208a013567ffffffffffffffff8082111561073457600080fd5b6107408d838e01610446565b909a50985060408c013591508082111561075957600080fd5b6107658d838e01610446565b909850965060608c013591508082111561077e57600080fd5b61078a8d838e01610446565b909650945060808c01359150808211156107a357600080fd5b506107b08c828d01610446565b915080935050809150509295985092959850929598565b60008383855260208086019550808560051b8301018460005b8781101561089957601f1980868503018a528235603e1989360301811261080657600080fd5b880160406001600160a01b0361081b836103a3565b16865286820135601e1983360301811261083457600080fd5b90910186810191903567ffffffffffffffff81111561085257600080fd5b80360383131561086157600080fd5b818888015280828801526060915080838389013760008782018301529b87019b601f01909216909401019250908301906001016107e0565b5090979650505050505050565b6001600160a01b038a16815260a0602082018190526000906108cb9083018a8c6107c7565b82810360408401526108de81898b6107c7565b905082810360608401526108f38187896107c7565b905082810360808401526109088185876107c7565b9c9b505050505050505050505050565b6101008082528951908201819052600090610120830190602090818d01845b8281101561095c5781516001600160a01b031685529383019390830190600101610937565b5050505089602084015261097b604084018a6001600160a01b03169052565b828103606084015261098d81896105ab565b9150506109a560808301876001600160a01b03169052565b6001600160a01b03851660a08301528360c08301526109cf60e08301846001600160a01b03169052565b9998505050505050505050565b600083516109ee818460208801610587565b9190910191825250602001919050565b608081526000610a12608083018a8c6107c7565b8281036020840152610a2581898b6107c7565b90508281036040840152610a3a8187896107c7565b90508281036060840152610a4f8185876107c7565b9b9a505050505050505050505056fea26469706673582212209e64c2ca41354d43be7cafd296bfb09a975bbbb65c36dfb92cc74b5aefb1279e64736f6c63430008180033","linkReferences":{}},"methodIdentifiers":{"getInitCode(address[],uint256,(address,bytes)[],(address,bytes)[],(address,bytes)[],(address,bytes)[])":"50ba8cf0","initSafe7579(address,(address,bytes)[],(address,bytes)[],(address,bytes)[],(address,bytes)[])":"b2ceef49","predictSafeAddress(address,address,bytes,bytes32,bytes)":"663c87d8"},"id":109}