{"abi":[{"type":"constructor","inputs":[],"stateMutability":"nonpayable"},{"type":"fallback","stateMutability":"nonpayable"},{"type":"receive","stateMutability":"payable"},{"type":"function","name":"VERSION","inputs":[],"outputs":[{"name":"","type":"string","internalType":"string"}],"stateMutability":"view"},{"type":"function","name":"addOwnerWithThreshold","inputs":[{"name":"owner","type":"address","internalType":"address"},{"name":"_threshold","type":"uint256","internalType":"uint256"}],"outputs":[],"stateMutability":"nonpayable"},{"type":"function","name":"approveHash","inputs":[{"name":"hashToApprove","type":"bytes32","internalType":"bytes32"}],"outputs":[],"stateMutability":"nonpayable"},{"type":"function","name":"approvedHashes","inputs":[{"name":"","type":"address","internalType":"address"},{"name":"","type":"bytes32","internalType":"bytes32"}],"outputs":[{"name":"","type":"uint256","internalType":"uint256"}],"stateMutability":"view"},{"type":"function","name":"changeThreshold","inputs":[{"name":"_threshold","type":"uint256","internalType":"uint256"}],"outputs":[],"stateMutability":"nonpayable"},{"type":"function","name":"checkNSignatures","inputs":[{"name":"dataHash","type":"bytes32","internalType":"bytes32"},{"name":"data","type":"bytes","internalType":"bytes"},{"name":"signatures","type":"bytes","internalType":"bytes"},{"name":"requiredSignatures","type":"uint256","internalType":"uint256"}],"outputs":[],"stateMutability":"view"},{"type":"function","name":"checkSignatures","inputs":[{"name":"dataHash","type":"bytes32","internalType":"bytes32"},{"name":"data","type":"bytes","internalType":"bytes"},{"name":"signatures","type":"bytes","internalType":"bytes"}],"outputs":[],"stateMutability":"view"},{"type":"function","name":"disableModule","inputs":[{"name":"prevModule","type":"address","internalType":"address"},{"name":"module","type":"address","internalType":"address"}],"outputs":[],"stateMutability":"nonpayable"},{"type":"function","name":"domainSeparator","inputs":[],"outputs":[{"name":"","type":"bytes32","internalType":"bytes32"}],"stateMutability":"view"},{"type":"function","name":"enableModule","inputs":[{"name":"module","type":"address","internalType":"address"}],"outputs":[],"stateMutability":"nonpayable"},{"type":"function","name":"encodeTransactionData","inputs":[{"name":"to","type":"address","internalType":"address"},{"name":"value","type":"uint256","internalType":"uint256"},{"name":"data","type":"bytes","internalType":"bytes"},{"name":"operation","type":"uint8","internalType":"enum Enum.Operation"},{"name":"safeTxGas","type":"uint256","internalType":"uint256"},{"name":"baseGas","type":"uint256","internalType":"uint256"},{"name":"gasPrice","type":"uint256","internalType":"uint256"},{"name":"gasToken","type":"address","internalType":"address"},{"name":"refundReceiver","type":"address","internalType":"address"},{"name":"_nonce","type":"uint256","internalType":"uint256"}],"outputs":[{"name":"","type":"bytes","internalType":"bytes"}],"stateMutability":"view"},{"type":"function","name":"execTransaction","inputs":[{"name":"to","type":"address","internalType":"address"},{"name":"value","type":"uint256","internalType":"uint256"},{"name":"data","type":"bytes","internalType":"bytes"},{"name":"operation","type":"uint8","internalType":"enum Enum.Operation"},{"name":"safeTxGas","type":"uint256","internalType":"uint256"},{"name":"baseGas","type":"uint256","internalType":"uint256"},{"name":"gasPrice","type":"uint256","internalType":"uint256"},{"name":"gasToken","type":"address","internalType":"address"},{"name":"refundReceiver","type":"address","internalType":"address payable"},{"name":"signatures","type":"bytes","internalType":"bytes"}],"outputs":[{"name":"success","type":"bool","internalType":"bool"}],"stateMutability":"payable"},{"type":"function","name":"execTransactionFromModule","inputs":[{"name":"to","type":"address","internalType":"address"},{"name":"value","type":"uint256","internalType":"uint256"},{"name":"data","type":"bytes","internalType":"bytes"},{"name":"operation","type":"uint8","internalType":"enum Enum.Operation"}],"outputs":[{"name":"success","type":"bool","internalType":"bool"}],"stateMutability":"nonpayable"},{"type":"function","name":"execTransactionFromModuleReturnData","inputs":[{"name":"to","type":"address","internalType":"address"},{"name":"value","type":"uint256","internalType":"uint256"},{"name":"data","type":"bytes","internalType":"bytes"},{"name":"operation","type":"uint8","internalType":"enum Enum.Operation"}],"outputs":[{"name":"success","type":"bool","internalType":"bool"},{"name":"returnData","type":"bytes","internalType":"bytes"}],"stateMutability":"nonpayable"},{"type":"function","name":"getChainId","inputs":[],"outputs":[{"name":"","type":"uint256","internalType":"uint256"}],"stateMutability":"view"},{"type":"function","name":"getModulesPaginated","inputs":[{"name":"start","type":"address","internalType":"address"},{"name":"pageSize","type":"uint256","internalType":"uint256"}],"outputs":[{"name":"array","type":"address[]","internalType":"address[]"},{"name":"next","type":"address","internalType":"address"}],"stateMutability":"view"},{"type":"function","name":"getOwners","inputs":[],"outputs":[{"name":"","type":"address[]","internalType":"address[]"}],"stateMutability":"view"},{"type":"function","name":"getStorageAt","inputs":[{"name":"offset","type":"uint256","internalType":"uint256"},{"name":"length","type":"uint256","internalType":"uint256"}],"outputs":[{"name":"","type":"bytes","internalType":"bytes"}],"stateMutability":"view"},{"type":"function","name":"getThreshold","inputs":[],"outputs":[{"name":"","type":"uint256","internalType":"uint256"}],"stateMutability":"view"},{"type":"function","name":"getTransactionHash","inputs":[{"name":"to","type":"address","internalType":"address"},{"name":"value","type":"uint256","internalType":"uint256"},{"name":"data","type":"bytes","internalType":"bytes"},{"name":"operation","type":"uint8","internalType":"enum Enum.Operation"},{"name":"safeTxGas","type":"uint256","internalType":"uint256"},{"name":"baseGas","type":"uint256","internalType":"uint256"},{"name":"gasPrice","type":"uint256","internalType":"uint256"},{"name":"gasToken","type":"address","internalType":"address"},{"name":"refundReceiver","type":"address","internalType":"address"},{"name":"_nonce","type":"uint256","internalType":"uint256"}],"outputs":[{"name":"","type":"bytes32","internalType":"bytes32"}],"stateMutability":"view"},{"type":"function","name":"isModuleEnabled","inputs":[{"name":"module","type":"address","internalType":"address"}],"outputs":[{"name":"","type":"bool","internalType":"bool"}],"stateMutability":"view"},{"type":"function","name":"isOwner","inputs":[{"name":"owner","type":"address","internalType":"address"}],"outputs":[{"name":"","type":"bool","internalType":"bool"}],"stateMutability":"view"},{"type":"function","name":"nonce","inputs":[],"outputs":[{"name":"","type":"uint256","internalType":"uint256"}],"stateMutability":"view"},{"type":"function","name":"removeOwner","inputs":[{"name":"prevOwner","type":"address","internalType":"address"},{"name":"owner","type":"address","internalType":"address"},{"name":"_threshold","type":"uint256","internalType":"uint256"}],"outputs":[],"stateMutability":"nonpayable"},{"type":"function","name":"setFallbackHandler","inputs":[{"name":"handler","type":"address","internalType":"address"}],"outputs":[],"stateMutability":"nonpayable"},{"type":"function","name":"setGuard","inputs":[{"name":"guard","type":"address","internalType":"address"}],"outputs":[],"stateMutability":"nonpayable"},{"type":"function","name":"setup","inputs":[{"name":"_owners","type":"address[]","internalType":"address[]"},{"name":"_threshold","type":"uint256","internalType":"uint256"},{"name":"to","type":"address","internalType":"address"},{"name":"data","type":"bytes","internalType":"bytes"},{"name":"fallbackHandler","type":"address","internalType":"address"},{"name":"paymentToken","type":"address","internalType":"address"},{"name":"payment","type":"uint256","internalType":"uint256"},{"name":"paymentReceiver","type":"address","internalType":"address payable"}],"outputs":[],"stateMutability":"nonpayable"},{"type":"function","name":"signedMessages","inputs":[{"name":"","type":"bytes32","internalType":"bytes32"}],"outputs":[{"name":"","type":"uint256","internalType":"uint256"}],"stateMutability":"view"},{"type":"function","name":"simulateAndRevert","inputs":[{"name":"targetContract","type":"address","internalType":"address"},{"name":"calldataPayload","type":"bytes","internalType":"bytes"}],"outputs":[],"stateMutability":"nonpayable"},{"type":"function","name":"swapOwner","inputs":[{"name":"prevOwner","type":"address","internalType":"address"},{"name":"oldOwner","type":"address","internalType":"address"},{"name":"newOwner","type":"address","internalType":"address"}],"outputs":[],"stateMutability":"nonpayable"},{"type":"event","name":"AddedOwner","inputs":[{"name":"owner","type":"address","indexed":true,"internalType":"address"}],"anonymous":false},{"type":"event","name":"ApproveHash","inputs":[{"name":"approvedHash","type":"bytes32","indexed":true,"internalType":"bytes32"},{"name":"owner","type":"address","indexed":true,"internalType":"address"}],"anonymous":false},{"type":"event","name":"ChangedFallbackHandler","inputs":[{"name":"handler","type":"address","indexed":true,"internalType":"address"}],"anonymous":false},{"type":"event","name":"ChangedGuard","inputs":[{"name":"guard","type":"address","indexed":true,"internalType":"address"}],"anonymous":false},{"type":"event","name":"ChangedThreshold","inputs":[{"name":"threshold","type":"uint256","indexed":false,"internalType":"uint256"}],"anonymous":false},{"type":"event","name":"DisabledModule","inputs":[{"name":"module","type":"address","indexed":true,"internalType":"address"}],"anonymous":false},{"type":"event","name":"EnabledModule","inputs":[{"name":"module","type":"address","indexed":true,"internalType":"address"}],"anonymous":false},{"type":"event","name":"ExecutionFailure","inputs":[{"name":"txHash","type":"bytes32","indexed":true,"internalType":"bytes32"},{"name":"payment","type":"uint256","indexed":false,"internalType":"uint256"}],"anonymous":false},{"type":"event","name":"ExecutionFromModuleFailure","inputs":[{"name":"module","type":"address","indexed":true,"internalType":"address"}],"anonymous":false},{"type":"event","name":"ExecutionFromModuleSuccess","inputs":[{"name":"module","type":"address","indexed":true,"internalType":"address"}],"anonymous":false},{"type":"event","name":"ExecutionSuccess","inputs":[{"name":"txHash","type":"bytes32","indexed":true,"internalType":"bytes32"},{"name":"payment","type":"uint256","indexed":false,"internalType":"uint256"}],"anonymous":false},{"type":"event","name":"RemovedOwner","inputs":[{"name":"owner","type":"address","indexed":true,"internalType":"address"}],"anonymous":false},{"type":"event","name":"SafeReceived","inputs":[{"name":"sender","type":"address","indexed":true,"internalType":"address"},{"name":"value","type":"uint256","indexed":false,"internalType":"uint256"}],"anonymous":false},{"type":"event","name":"SafeSetup","inputs":[{"name":"initiator","type":"address","indexed":true,"internalType":"address"},{"name":"owners","type":"address[]","indexed":false,"internalType":"address[]"},{"name":"threshold","type":"uint256","indexed":false,"internalType":"uint256"},{"name":"initializer","type":"address","indexed":false,"internalType":"address"},{"name":"fallbackHandler","type":"address","indexed":false,"internalType":"address"}],"anonymous":false},{"type":"event","name":"SignMsg","inputs":[{"name":"msgHash","type":"bytes32","indexed":true,"internalType":"bytes32"}],"anonymous":false}],"bytecode":{"object":"0x608060405234801561001057600080fd5b5060016004556130c4806100256000396000f3fe6080604052600436106101d15760003560e01c8063affed0e0116100f7578063e19a9dd911610095578063f08a032311610064578063f08a0323146105f5578063f698da2514610615578063f8dc5dd91461062a578063ffa1ad741461064a5761020d565b8063e19a9dd914610580578063e318b52b146105a0578063e75235b8146105c0578063e86637db146105d55761020d565b8063cc2f8452116100d1578063cc2f8452146104f2578063d4d9bdcd14610520578063d8d11f7814610540578063e009cfde146105605761020d565b8063affed0e01461049c578063b4faba09146104b2578063b63e800d146104d25761020d565b80635624b25b1161016f5780636a7612021161013e5780636a7612021461040f5780637d83297414610422578063934f3a111461045a578063a0e67e2b1461047a5761020d565b80635624b25b146103755780635ae6bd37146103a2578063610b5925146103cf578063694e80c3146103ef5761020d565b80632f54bf6e116101ab5780632f54bf6e146102ea5780633408e4701461030a578063468721a7146103275780635229073f146103475761020d565b80630d582f131461027357806312fb68e0146102955780632d9ad53d146102b55761020d565b3661020d5760405134815233907f3d0ce9bfc3ed7d6862dbb28b2dea94561fe714a1b4d019aa8af39730d1ad7c3d9060200160405180910390a2005b34801561021957600080fd5b507f6c9a6c4a39284e37ed1cf53d337577d14212a4870fb976a4366c693b939918d580548061024457005b36600080373360601b365260008060143601600080855af190503d6000803e8061026d573d6000fd5b503d6000f35b34801561027f57600080fd5b5061029361028e36600461259f565b61067b565b005b3480156102a157600080fd5b506102936102b036600461266e565b6107d3565b3480156102c157600080fd5b506102d56102d03660046126e3565b610c72565b60405190151581526020015b60405180910390f35b3480156102f657600080fd5b506102d56103053660046126e3565b610cad565b34801561031657600080fd5b50465b6040519081526020016102e1565b34801561033357600080fd5b506102d561034236600461270f565b610ce5565b34801561035357600080fd5b5061036761036236600461270f565b610dbe565b6040516102e19291906127bf565b34801561038157600080fd5b506103956103903660046127da565b610df4565b6040516102e191906127fc565b3480156103ae57600080fd5b506103196103bd36600461280f565b60076020526000908152604090205481565b3480156103db57600080fd5b506102936103ea3660046126e3565b610e70565b3480156103fb57600080fd5b5061029361040a36600461280f565b610fa9565b6102d561041d366004612871565b611047565b34801561042e57600080fd5b5061031961043d36600461259f565b600860209081526000928352604080842090915290825290205481565b34801561046657600080fd5b5061029361047536600461294a565b611392565b34801561048657600080fd5b5061048f6113dc565b6040516102e191906129fc565b3480156104a857600080fd5b5061031960055481565b3480156104be57600080fd5b506102936104cd366004612a0f565b6114cd565b3480156104de57600080fd5b506102936104ed366004612a5f565b6114f0565b3480156104fe57600080fd5b5061051261050d36600461259f565b6115f2565b6040516102e1929190612b54565b34801561052c57600080fd5b5061029361053b36600461280f565b6117ae565b34801561054c57600080fd5b5061031961055b366004612b7e565b611843565b34801561056c57600080fd5b5061029361057b366004612c3f565b611870565b34801561058c57600080fd5b5061029361059b3660046126e3565b611992565b3480156105ac57600080fd5b506102936105bb366004612c78565b611aa8565b3480156105cc57600080fd5b50600454610319565b3480156105e157600080fd5b506103956105f0366004612b7e565b611c83565b34801561060157600080fd5b506102936106103660046126e3565b611d5c565b34801561062157600080fd5b50610319611da4565b34801561063657600080fd5b50610293610645366004612cc3565b611dfb565b34801561065657600080fd5b5061039560405180604001604052806005815260200164312e342e3160d81b81525081565b610683611f66565b6001600160a01b038216158015906106a557506001600160a01b038216600114155b80156106ba57506001600160a01b0382163014155b6106df5760405162461bcd60e51b81526004016106d690612d04565b60405180910390fd5b6001600160a01b0382811660009081526002602052604090205416156107175760405162461bcd60e51b81526004016106d690612d23565b60026020527fe90b7bceb6e7df5418fb78d8ee546e97c83a08bbccc01a0644d599ccd2a7c2e080546001600160a01b038481166000818152604081208054939094166001600160a01b03199384161790935560018352835490911617909155600380549161078483612d58565b90915550506040516001600160a01b038316907f9465fa0c962cc76958e6373a993326400c1c94f8be2fe3a952adfa7f60b2ea2690600090a280600454146107cf576107cf81610fa9565b5050565b6107de816041611f9f565b825110156108165760405162461bcd60e51b8152602060048201526005602482015264047533032360dc1b60448201526064016106d6565b6000808060008060005b86811015610c66576041818102890160208101516040820151919092015160ff16955090935091506000849003610a2e57885160208a01208a1461088e5760405162461bcd60e51b8152602060048201526005602482015264475330323760d81b60448201526064016106d6565b919350839161089e876041611f9f565b8210156108d55760405162461bcd60e51b8152602060048201526005602482015264475330323160d81b60448201526064016106d6565b87516108e2836020611fdb565b11156109185760405162461bcd60e51b815260206004820152600560248201526423a998191960d91b60448201526064016106d6565b60208289018101518951909161093b908390610935908790611fdb565b90611fdb565b11156109715760405162461bcd60e51b8152602060048201526005602482015264475330323360d81b60448201526064016106d6565b6040516320c13b0b60e01b8082528a8501602001916001600160a01b038916906320c13b0b906109a7908f908690600401612d71565b602060405180830381865afa1580156109c4573d6000803e3d6000fd5b505050506040513d601f19601f820116820180604052508101906109e89190612d96565b6001600160e01b03191614610a275760405162461bcd60e51b815260206004820152600560248201526411d4cc0c8d60da1b60448201526064016106d6565b5050610bd5565b8360ff16600103610ab0579193508391336001600160a01b0384161480610a7757506001600160a01b03851660009081526008602090815260408083208d845290915290205415155b610aab5760405162461bcd60e51b8152602060048201526005602482015264475330323560d81b60448201526064016106d6565b610bd5565b601e8460ff161115610b75576040517f19457468657265756d205369676e6564204d6573736167653a0a3332000000006020820152603c81018b9052600190605c0160405160208183030381529060405280519060200120600486610b159190612dc0565b6040805160008152602081018083529390935260ff90911690820152606081018590526080810184905260a0016020604051602081039080840390855afa158015610b64573d6000803e3d6000fd5b505050602060405103519450610bd5565b6040805160008152602081018083528c905260ff861691810191909152606081018490526080810183905260019060a0016020604051602081039080840390855afa158015610bc8573d6000803e3d6000fd5b5050506020604051035194505b856001600160a01b0316856001600160a01b0316118015610c0f57506001600160a01b038581166000908152600260205260409020541615155b8015610c2557506001600160a01b038516600114155b610c595760405162461bcd60e51b815260206004820152600560248201526423a998191b60d91b60448201526064016106d6565b9394508493600101610820565b50505050505050505050565b600060016001600160a01b03831614801590610ca757506001600160a01b038281166000908152600160205260409020541615155b92915050565b60006001600160a01b038216600114801590610ca75750506001600160a01b0390811660009081526002602052604090205416151590565b600033600114801590610d0f5750336000908152600160205260409020546001600160a01b031615155b610d435760405162461bcd60e51b815260206004820152600560248201526411d4cc4c0d60da1b60448201526064016106d6565b610d5285858585600019611ff7565b90508015610d8a5760405133907f6895c13664aa4f67288b25d7a21d7aaa34916e355fb9b6fae0a139a9085becb890600090a2610db6565b60405133907facd2c8702804128fdb0db2bb49f6d127dd0181c13fd45dbfe16de0930e2bd37590600090a25b949350505050565b60006060610dce86868686610ce5565b915060405160203d0181016040523d81523d6000602083013e8091505094509492505050565b60606000610e03836020612dd9565b67ffffffffffffffff811115610e1b57610e1b6125cb565b6040519080825280601f01601f191660200182016040528015610e45576020820181803683370190505b50905060005b83811015610e685784810154602080830284010152600101610e4b565b509392505050565b610e78611f66565b6001600160a01b03811615801590610e9a57506001600160a01b038116600114155b610ece5760405162461bcd60e51b8152602060048201526005602482015264475331303160d81b60448201526064016106d6565b6001600160a01b038181166000908152600160205260409020541615610f1e5760405162461bcd60e51b815260206004820152600560248201526423a998981960d91b60448201526064016106d6565b600160208190527fcc69885fda6bcc1a4ace058b4a62bf5e179ea78fd58a1ccd71c22cc9b688792f80546001600160a01b03848116600081815260408082208054949095166001600160a01b031994851617909455948552835490911681179092555190917fecdf3a3effea5783a3c4c2140e677577666428d44ed9d474a0b3a4c9943f844091a250565b610fb1611f66565b600354811115610fd35760405162461bcd60e51b81526004016106d690612df0565b600181101561100c5760405162461bcd60e51b815260206004820152600560248201526423a999181960d91b60448201526064016106d6565b60048190556040518181527f610f7ff2b304ae8903c3de74c60c6ab1f7d6226b3f52c5161905bb5ad4039c939060200160405180910390a150565b60008060006110618e8e8e8e8e8e8e8e8e8e600554611c83565b60058054919250600061107383612d58565b909155505080516020820120915061108c828286611392565b5060006110b77f4a204f620c8c5ccdca3fd54d003badd85ba500436a431f0cbda4f558c93c34c85490565b90506001600160a01b0381161561113d57806001600160a01b03166375f0bb528f8f8f8f8f8f8f8f8f8f8f336040518d63ffffffff1660e01b815260040161110a9c9b9a99989796959493929190612e47565b600060405180830381600087803b15801561112457600080fd5b505af1158015611138573d6000803e3d6000fd5b505050505b61116961114c8a6109c4612f0c565b603f6111598c6040612dd9565b6111639190612f1f565b9061203e565b611175906101f4612f0c565b5a10156111ac5760405162461bcd60e51b8152602060048201526005602482015264047533031360dc1b60448201526064016106d6565b60005a905061121d8f8f8f8f8080601f016020809104026020016040519081016040528093929190818152602001838380828437600081840152601f19601f820116905080830192505050505050508e8c60001461120a578e611ff7565b6109c45a6112189190612f41565b611ff7565b935061122a5a8290612055565b9050838061123757508915155b8061124157508715155b6112755760405162461bcd60e51b8152602060048201526005602482015264475330313360d81b60448201526064016106d6565b6000881561128d5761128a828b8b8b8b612070565b90505b84156112d257837f442e715f626346e8c54381002da614f62bee8d27386535b2521ec8540898556e826040516112c591815260200190565b60405180910390a261130d565b837f23428b18acfb3ea64b08dc0c1d296ea9c09702c09083ca5272e64d115b687d238260405161130491815260200190565b60405180910390a25b50506001600160a01b0381161561138157604051631264e26d60e31b81526004810183905283151560248201526001600160a01b03821690639327136890604401600060405180830381600087803b15801561136857600080fd5b505af115801561137c573d6000803e3d6000fd5b505050505b50509b9a5050505050505050505050565b600454806113ca5760405162461bcd60e51b8152602060048201526005602482015264475330303160d81b60448201526064016106d6565b6113d6848484846107d3565b50505050565b6060600060035467ffffffffffffffff8111156113fb576113fb6125cb565b604051908082528060200260200182016040528015611424578160200160208202803683370190505b506001600090815260026020527fe90b7bceb6e7df5418fb78d8ee546e97c83a08bbccc01a0644d599ccd2a7c2e054919250906001600160a01b03165b6001600160a01b0381166001146114c5578083838151811061148557611485612f54565b6001600160a01b039283166020918202929092018101919091529181166000908152600290925260409091205416816114bd81612d58565b925050611461565b509092915050565b600080825160208401855af480600052503d6020523d600060403e60403d016000fd5b61152e8a8a808060200260200160405190810160405280939291908181526020018383602002808284376000920191909152508c9250612176915050565b6001600160a01b038416156115465761154684612352565b6115868787878080601f0160208091040260200160405190810160405280939291908181526020018383808284376000920191909152506123b692505050565b811561159d5761159b82600060018685612070565b505b336001600160a01b03167f141df868a6331af528e38c83b7aa03edc19be66e37ae67f9285bf4f8e3c6a1a88b8b8b8b896040516115de959493929190612f6a565b60405180910390a250505050505050505050565b606060006001600160a01b03841660011480611612575061161284610c72565b6116465760405162461bcd60e51b8152602060048201526005602482015264475331303560d81b60448201526064016106d6565b6000831161167e5760405162461bcd60e51b815260206004820152600560248201526423a998981b60d91b60448201526064016106d6565b8267ffffffffffffffff811115611697576116976125cb565b6040519080825280602002602001820160405280156116c0578160200160208202803683370190505b506001600160a01b03808616600090815260016020526040812054929450911691505b6001600160a01b0382161580159061170557506001600160a01b038216600114155b801561171057508381105b1561176b578183828151811061172857611728612f54565b6001600160a01b0392831660209182029290920181019190915292811660009081526001909352604090922054909116908061176381612d58565b9150506116e3565b6001600160a01b0382166001146117a35782611788600183612f41565b8151811061179857611798612f54565b602002602001015191505b808352509250929050565b336000908152600260205260409020546001600160a01b03166117fb5760405162461bcd60e51b8152602060048201526005602482015264047533033360dc1b60448201526064016106d6565b336000818152600860209081526040808320858452909152808220600190555183917ff2a0eb156472d1440255b0d7c1e19cc07115d1051fe605b0dce69acfec884d9c91a350565b60006118588c8c8c8c8c8c8c8c8c8c8c611c83565b8051906020012090509b9a5050505050505050505050565b611878611f66565b6001600160a01b0381161580159061189a57506001600160a01b038116600114155b6118ce5760405162461bcd60e51b8152602060048201526005602482015264475331303160d81b60448201526064016106d6565b6001600160a01b038281166000908152600160205260409020548116908216146119225760405162461bcd60e51b8152602060048201526005602482015264475331303360d81b60448201526064016106d6565b6001600160a01b03818116600081815260016020526040808220805487861684528284208054919096166001600160a01b0319918216179095558383528054909416909355915190917faab4fa2b463f581b2b32cb3b7e3b704b9ce37cc209b5fb4d77e593ace405427691a25050565b61199a611f66565b6001600160a01b03811615611a4c576040516301ffc9a760e01b815263736bd41d60e11b60048201526001600160a01b038216906301ffc9a790602401602060405180830381865afa1580156119f4573d6000803e3d6000fd5b505050506040513d601f19601f82011682018060405250810190611a189190612fd6565b611a4c5760405162461bcd60e51b8152602060048201526005602482015264047533330360dc1b60448201526064016106d6565b7f4a204f620c8c5ccdca3fd54d003badd85ba500436a431f0cbda4f558c93c34c88181556040516001600160a01b038316907f1151116914515bc0891ff9047a6cb32cf902546f83066499bcf8ba33d2353fa290600090a25050565b611ab0611f66565b6001600160a01b03811615801590611ad257506001600160a01b038116600114155b8015611ae757506001600160a01b0381163014155b611b035760405162461bcd60e51b81526004016106d690612d04565b6001600160a01b038181166000908152600260205260409020541615611b3b5760405162461bcd60e51b81526004016106d690612d23565b6001600160a01b03821615801590611b5d57506001600160a01b038216600114155b611b795760405162461bcd60e51b81526004016106d690612d04565b6001600160a01b03838116600090815260026020526040902054811690831614611bcd5760405162461bcd60e51b8152602060048201526005602482015264475332303560d81b60448201526064016106d6565b6001600160a01b03828116600081815260026020526040808220805486861680855283852080549288166001600160a01b03199384161790559589168452828420805482169096179095558383528054909416909355915190917ff8d49fc529812e9a7c5c50e69c20f0dccc0db8fa95c98bc58cc9a4f1c1299eaf91a26040516001600160a01b038216907f9465fa0c962cc76958e6373a993326400c1c94f8be2fe3a952adfa7f60b2ea2690600090a2505050565b606060007fbb8310d486368db6bd6f849402fdd73ad53d316b5a4b2644ad6efe0f941286d860001b8d8d8d8d604051611cbd929190612ff8565b604051908190038120611ce3949392918e908e908e908e908e908e908e90602001613008565b60408051601f1981840301815291905280516020909101209050601960f81b600160f81b611d0f611da4565b6040516001600160f81b031993841660208201529290911660218301526022820152604281018290526062016040516020818303038152906040529150509b9a5050505050505050505050565b611d64611f66565b611d6d81612352565b6040516001600160a01b038216907f5ac6c46c93c8d0e53714ba3b53db3e7c046da994313d7ed0d192028bc7c228b090600090a250565b60007f47e79534a245952e8b16893a336b85a3d9ea9fa8c573f3d803afb92a794692184660408051602081019390935282015230606082015260800160405160208183030381529060405280519060200120905090565b611e03611f66565b806001600354611e139190612f41565b1015611e315760405162461bcd60e51b81526004016106d690612df0565b6001600160a01b03821615801590611e5357506001600160a01b038216600114155b611e6f5760405162461bcd60e51b81526004016106d690612d04565b6001600160a01b03838116600090815260026020526040902054811690831614611ec35760405162461bcd60e51b8152602060048201526005602482015264475332303560d81b60448201526064016106d6565b6001600160a01b03828116600081815260026020526040808220805488861684529183208054929095166001600160a01b03199283161790945591815282549091169091556003805491611f1683613077565b90915550506040516001600160a01b038316907ff8d49fc529812e9a7c5c50e69c20f0dccc0db8fa95c98bc58cc9a4f1c1299eaf90600090a28060045414611f6157611f6181610fa9565b505050565b333014611f9d5760405162461bcd60e51b8152602060048201526005602482015264475330333160d81b60448201526064016106d6565b565b600082600003611fb157506000610ca7565b6000611fbd8385612dd9565b905082611fca8583612f1f565b14611fd457600080fd5b9392505050565b600080611fe88385612f0c565b905083811015611fd457600080fd5b6000600183600181111561200d5761200d612e0f565b03612025576000808551602087018986f49050612035565b600080855160208701888a87f190505b95945050505050565b60008183101561204e5781611fd4565b5090919050565b60008282111561206457600080fd5b6000610db68385612f41565b6000806001600160a01b03831615612088578261208a565b325b90506001600160a01b03841661211d576120bc3a86106120aa573a6120ac565b855b6120b68989611fdb565b90611f9f565b6040519092506001600160a01b0382169083156108fc029084906000818181858888f193505050506121185760405162461bcd60e51b8152602060048201526005602482015264475330313160d81b60448201526064016106d6565b61216c565b61212b856120b68989611fdb565b91506121388482846124e8565b61216c5760405162461bcd60e51b815260206004820152600560248201526423a998189960d91b60448201526064016106d6565b5095945050505050565b600454156121ae5760405162461bcd60e51b8152602060048201526005602482015264047533230360dc1b60448201526064016106d6565b81518111156121cf5760405162461bcd60e51b81526004016106d690612df0565b60018110156122085760405162461bcd60e51b815260206004820152600560248201526423a999181960d91b60448201526064016106d6565b600160005b835181101561231f57600084828151811061222a5761222a612f54565b6020026020010151905060006001600160a01b0316816001600160a01b03161415801561226157506001600160a01b038116600114155b801561227657506001600160a01b0381163014155b80156122945750806001600160a01b0316836001600160a01b031614155b6122b05760405162461bcd60e51b81526004016106d690612d04565b6001600160a01b0381811660009081526002602052604090205416156122e85760405162461bcd60e51b81526004016106d690612d23565b6001600160a01b03928316600090815260026020526040902080546001600160a01b0319169382169390931790925560010161220d565b506001600160a01b0316600090815260026020526040902080546001600160a01b03191660011790559051600355600455565b306001600160a01b038216036123925760405162461bcd60e51b8152602060048201526005602482015264047533430360dc1b60448201526064016106d6565b7f6c9a6c4a39284e37ed1cf53d337577d14212a4870fb976a4366c693b939918d555565b600160008190526020527fcc69885fda6bcc1a4ace058b4a62bf5e179ea78fd58a1ccd71c22cc9b688792f546001600160a01b0316156124205760405162461bcd60e51b8152602060048201526005602482015264047533130360dc1b60448201526064016106d6565b6001600081905260208190527fcc69885fda6bcc1a4ace058b4a62bf5e179ea78fd58a1ccd71c22cc9b688792f80546001600160a01b03191690911790556001600160a01b038216156107cf57813b6124a35760405162461bcd60e51b815260206004820152600560248201526423a998181960d91b60448201526064016106d6565b6124b4826000836001600019611ff7565b6107cf5760405162461bcd60e51b8152602060048201526005602482015264047533030360dc1b60448201526064016106d6565b604080516001600160a01b03841660248201526044808201849052825180830390910181526064909101909152602080820180516001600160e01b031663a9059cbb60e01b1781528251600093929184919082896127105a03f13d801561255a5760208114612562576000935061256d565b81935061256d565b600051158215171593505b5050509392505050565b6001600160a01b038116811461258c57600080fd5b50565b803561259a81612577565b919050565b600080604083850312156125b257600080fd5b82356125bd81612577565b946020939093013593505050565b634e487b7160e01b600052604160045260246000fd5b600082601f8301126125f257600080fd5b813567ffffffffffffffff8082111561260d5761260d6125cb565b604051601f8301601f19908116603f01168101908282118183101715612635576126356125cb565b8160405283815286602085880101111561264e57600080fd5b836020870160208301376000602085830101528094505050505092915050565b6000806000806080858703121561268457600080fd5b84359350602085013567ffffffffffffffff808211156126a357600080fd5b6126af888389016125e1565b945060408701359150808211156126c557600080fd5b506126d2878288016125e1565b949793965093946060013593505050565b6000602082840312156126f557600080fd5b8135611fd481612577565b80356002811061259a57600080fd5b6000806000806080858703121561272557600080fd5b843561273081612577565b935060208501359250604085013567ffffffffffffffff81111561275357600080fd5b61275f878288016125e1565b92505061276e60608601612700565b905092959194509250565b6000815180845260005b8181101561279f57602081850181015186830182015201612783565b506000602082860101526020601f19601f83011685010191505092915050565b8215158152604060208201526000610db66040830184612779565b600080604083850312156127ed57600080fd5b50508035926020909101359150565b602081526000611fd46020830184612779565b60006020828403121561282157600080fd5b5035919050565b60008083601f84011261283a57600080fd5b50813567ffffffffffffffff81111561285257600080fd5b60208301915083602082850101111561286a57600080fd5b9250929050565b60008060008060008060008060008060006101408c8e03121561289357600080fd5b61289c8c61258f565b9a5060208c0135995067ffffffffffffffff8060408e013511156128bf57600080fd5b6128cf8e60408f01358f01612828565b909a5098506128e060608e01612700565b975060808d0135965060a08d0135955060c08d0135945061290360e08e0161258f565b93506129126101008e0161258f565b9250806101208e0135111561292657600080fd5b506129388d6101208e01358e016125e1565b90509295989b509295989b9093969950565b60008060006060848603121561295f57600080fd5b83359250602084013567ffffffffffffffff8082111561297e57600080fd5b61298a878388016125e1565b935060408601359150808211156129a057600080fd5b506129ad868287016125e1565b9150509250925092565b60008151808452602080850194506020840160005b838110156129f15781516001600160a01b0316875295820195908201906001016129cc565b509495945050505050565b602081526000611fd460208301846129b7565b60008060408385031215612a2257600080fd5b8235612a2d81612577565b9150602083013567ffffffffffffffff811115612a4957600080fd5b612a55858286016125e1565b9150509250929050565b6000806000806000806000806000806101008b8d031215612a7f57600080fd5b8a3567ffffffffffffffff80821115612a9757600080fd5b818d0191508d601f830112612aab57600080fd5b813581811115612aba57600080fd5b8e60208260051b8501011115612acf57600080fd5b60208381019d50909b508d01359950612aea60408e0161258f565b985060608d0135915080821115612b0057600080fd5b50612b0d8d828e01612828565b9097509550612b20905060808c0161258f565b9350612b2e60a08c0161258f565b925060c08b01359150612b4360e08c0161258f565b90509295989b9194979a5092959850565b604081526000612b6760408301856129b7565b905060018060a01b03831660208301529392505050565b60008060008060008060008060008060006101408c8e031215612ba057600080fd5b8b35612bab81612577565b9a5060208c0135995060408c013567ffffffffffffffff811115612bce57600080fd5b612bda8e828f01612828565b909a509850612bed905060608d01612700565b965060808c0135955060a08c0135945060c08c0135935060e08c0135612c1281612577565b92506101008c0135612c2381612577565b809250506101208c013590509295989b509295989b9093969950565b60008060408385031215612c5257600080fd5b8235612c5d81612577565b91506020830135612c6d81612577565b809150509250929050565b600080600060608486031215612c8d57600080fd5b8335612c9881612577565b92506020840135612ca881612577565b91506040840135612cb881612577565b809150509250925092565b600080600060608486031215612cd857600080fd5b8335612ce381612577565b92506020840135612cf381612577565b929592945050506040919091013590565b602080825260059082015264475332303360d81b604082015260600190565b60208082526005908201526411d4cc8c0d60da1b604082015260600190565b634e487b7160e01b600052601160045260246000fd5b600060018201612d6a57612d6a612d42565b5060010190565b604081526000612d846040830185612779565b82810360208401526120358185612779565b600060208284031215612da857600080fd5b81516001600160e01b031981168114611fd457600080fd5b60ff8281168282160390811115610ca757610ca7612d42565b8082028115828204841417610ca757610ca7612d42565b602080825260059082015264475332303160d81b604082015260600190565b634e487b7160e01b600052602160045260246000fd5b60028110612e4357634e487b7160e01b600052602160045260246000fd5b9052565b6001600160a01b038d168152602081018c90526101606040820181905281018a905260006101808b8d828501376000838d01820152601f8c01601f19168301612e93606085018d612e25565b8a60808501528960a08501528860c0850152612eba60e08501896001600160a01b03169052565b6001600160a01b0387166101008501528184820301610120850152612ee182820187612779565b92505050612efb6101408301846001600160a01b03169052565b9d9c50505050505050505050505050565b80820180821115610ca757610ca7612d42565b600082612f3c57634e487b7160e01b600052601260045260246000fd5b500490565b81810381811115610ca757610ca7612d42565b634e487b7160e01b600052603260045260246000fd5b6080808252810185905260008660a08301825b88811015612fad578235612f9081612577565b6001600160a01b0316825260209283019290910190600101612f7d565b50602084019690965250506001600160a01b039283166040820152911660609091015292915050565b600060208284031215612fe857600080fd5b81518015158114611fd457600080fd5b8183823760009101908152919050565b8b81526001600160a01b038b81166020830152604082018b9052606082018a905261016082019061303c608084018b612e25565b60a083019890985260c082019690965260e0810194909452918516610100840152909316610120820152610140019190915295945050505050565b60008161308657613086612d42565b50600019019056fea2646970667358221220c18466d7f86e6709c840214989e26ad0efee5e5d268e1ea900dfb91b9bfa6eed64736f6c63430008180033","linkReferences":{}},"methodIdentifiers":{"VERSION()":"ffa1ad74","addOwnerWithThreshold(address,uint256)":"0d582f13","approveHash(bytes32)":"d4d9bdcd","approvedHashes(address,bytes32)":"7d832974","changeThreshold(uint256)":"694e80c3","checkNSignatures(bytes32,bytes,bytes,uint256)":"12fb68e0","checkSignatures(bytes32,bytes,bytes)":"934f3a11","disableModule(address,address)":"e009cfde","domainSeparator()":"f698da25","enableModule(address)":"610b5925","encodeTransactionData(address,uint256,bytes,uint8,uint256,uint256,uint256,address,address,uint256)":"e86637db","execTransaction(address,uint256,bytes,uint8,uint256,uint256,uint256,address,address,bytes)":"6a761202","execTransactionFromModule(address,uint256,bytes,uint8)":"468721a7","execTransactionFromModuleReturnData(address,uint256,bytes,uint8)":"5229073f","getChainId()":"3408e470","getModulesPaginated(address,uint256)":"cc2f8452","getOwners()":"a0e67e2b","getStorageAt(uint256,uint256)":"5624b25b","getThreshold()":"e75235b8","getTransactionHash(address,uint256,bytes,uint8,uint256,uint256,uint256,address,address,uint256)":"d8d11f78","isModuleEnabled(address)":"2d9ad53d","isOwner(address)":"2f54bf6e","nonce()":"affed0e0","removeOwner(address,address,uint256)":"f8dc5dd9","setFallbackHandler(address)":"f08a0323","setGuard(address)":"e19a9dd9","setup(address[],uint256,address,bytes,address,address,uint256,address)":"b63e800d","signedMessages(bytes32)":"5ae6bd37","simulateAndRevert(address,bytes)":"b4faba09","swapOwner(address,address,address)":"e318b52b"},"id":39}