{"abi":[{"type":"function","name":"_parsePermissionFromPermissionEnableData","inputs":[{"name":"_permissionEnableData","type":"bytes","internalType":"bytes"},{"name":"_permissionIndex","type":"uint256","internalType":"uint256"}],"outputs":[{"name":"permissionChainId","type":"uint64","internalType":"uint64"},{"name":"permissionDigest","type":"bytes32","internalType":"bytes32"}],"stateMutability":"pure"},{"type":"function","name":"enabledPermissions","inputs":[{"name":"singleSignerPermissionId","type":"bytes32","internalType":"bytes32"},{"name":"smartAccount","type":"address","internalType":"address"}],"outputs":[{"name":"validUntil","type":"uint48","internalType":"ValidUntil"},{"name":"validAfter","type":"uint48","internalType":"ValidAfter"},{"name":"signatureValidationAlgorithm","type":"address","internalType":"address"},{"name":"signer","type":"bytes","internalType":"bytes"},{"name":"policy","type":"address","internalType":"address"},{"name":"policyData","type":"bytes","internalType":"bytes"}],"stateMutability":"view"},{"type":"function","name":"getModuleTypes","inputs":[],"outputs":[{"name":"","type":"uint256","internalType":"uint256"}],"stateMutability":"view"},{"type":"function","name":"getSingleSignerPermissionId","inputs":[{"name":"validUntil","type":"uint48","internalType":"ValidUntil"},{"name":"validAfter","type":"uint48","internalType":"ValidAfter"},{"name":"signatureValidationAlgorithm","type":"address","internalType":"address"},{"name":"signer","type":"bytes","internalType":"bytes"},{"name":"policies","type":"address[]","internalType":"address[]"},{"name":"policyDatas","type":"bytes[]","internalType":"bytes[]"}],"outputs":[{"name":"","type":"bytes32","internalType":"bytes32"}],"stateMutability":"pure"},{"type":"function","name":"isInitialized","inputs":[{"name":"","type":"address","internalType":"address"}],"outputs":[{"name":"","type":"bool","internalType":"bool"}],"stateMutability":"pure"},{"type":"function","name":"isModuleType","inputs":[{"name":"moduleTypeId","type":"uint256","internalType":"uint256"}],"outputs":[{"name":"","type":"bool","internalType":"bool"}],"stateMutability":"pure"},{"type":"function","name":"isValidSignatureWithSender","inputs":[{"name":"sender","type":"address","internalType":"address"},{"name":"hash","type":"bytes32","internalType":"bytes32"},{"name":"data","type":"bytes","internalType":"bytes"}],"outputs":[{"name":"","type":"bytes4","internalType":"bytes4"}],"stateMutability":"view"},{"type":"function","name":"onInstall","inputs":[{"name":"data","type":"bytes","internalType":"bytes"}],"outputs":[],"stateMutability":"nonpayable"},{"type":"function","name":"onUninstall","inputs":[{"name":"data","type":"bytes","internalType":"bytes"}],"outputs":[],"stateMutability":"nonpayable"},{"type":"function","name":"test","inputs":[{"name":"a","type":"uint256","internalType":"uint256"}],"outputs":[],"stateMutability":"nonpayable"},{"type":"function","name":"validateUserOp","inputs":[{"name":"userOp","type":"tuple","internalType":"struct PackedUserOperation","components":[{"name":"sender","type":"address","internalType":"address"},{"name":"nonce","type":"uint256","internalType":"uint256"},{"name":"initCode","type":"bytes","internalType":"bytes"},{"name":"callData","type":"bytes","internalType":"bytes"},{"name":"accountGasLimits","type":"bytes32","internalType":"bytes32"},{"name":"preVerificationGas","type":"uint256","internalType":"uint256"},{"name":"gasFees","type":"bytes32","internalType":"bytes32"},{"name":"paymasterAndData","type":"bytes","internalType":"bytes"},{"name":"signature","type":"bytes","internalType":"bytes"}]},{"name":"userOpHash","type":"bytes32","internalType":"bytes32"}],"outputs":[{"name":"validationData","type":"uint256","internalType":"uint256"}],"stateMutability":"nonpayable"},{"type":"error","name":"AlreadyInitialized","inputs":[{"name":"smartAccount","type":"address","internalType":"address"}]},{"type":"error","name":"InvalidTargetAddress","inputs":[{"name":"target","type":"address","internalType":"address"}]},{"type":"error","name":"NotInitialized","inputs":[{"name":"smartAccount","type":"address","internalType":"address"}]}],"bytecode":{"object":"0x608060405234801561001057600080fd5b506110d6806100206000396000f3fe608060405234801561001057600080fd5b50600436106100a95760003560e01c806397003203116100715780639700320314610146578063b8e1dc9914610159578063d60b347f1461017e578063d6cc1aa4146101a2578063ecd05961146101a9578063f551e2ee146101bd57600080fd5b8063243d0df6146100ae57806329e99f07146100ef5780636d61fe70146101025780638118d205146101145780638a91b0e314610102575b600080fd5b6100dc6100bc366004610943565b604080516000815260208101918290525190209998505050505050505050565b6040519081526020015b60405180910390f35b6101006100fd366004610a16565b50565b005b610100610110366004610a2f565b5050565b610127610122366004610a70565b6101f5565b604080516001600160401b0390931683526020830191909152016100e6565b6100dc610154366004610abb565b610274565b61016c610167366004610b05565b610289565b6040516100e696959493929190610b85565b61019261018c366004610be9565b50600190565b60405190151581526020016100e6565b60006100dc565b6101926101b7366004610a16565b60011490565b6101dc6101cb366004610c0d565b6001600160e01b0319949350505050565b6040516001600160e01b031990911681526020016100e6565b60016008828102850182013560c01c91853560f81c9182028601602085020101359080841061026b5760405162461bcd60e51b815260206004820152601b60248201527f534b4d3a2053657373696f6e4b6579496e646578496e76616c6964000000000060448201526064015b60405180910390fd5b50935093915050565b600061028083836103ff565b90505b92915050565b60006020818152928152604080822090935290815220805460018201805465ffffffffffff80841694600160301b850490911693600160601b90046001600160a01b03169290916102d990610c68565b80601f016020809104026020016040519081016040528092919081815260200182805461030590610c68565b80156103525780601f1061032757610100808354040283529160200191610352565b820191906000526020600020905b81548152906001019060200180831161033557829003601f168201915b505050600284015460038501805494956001600160a01b0390921694919350915061037c90610c68565b80601f01602080910402602001604051908101604052809291908181526020018280546103a890610c68565b80156103f55780601f106103ca576101008083540402835291602001916103f5565b820191906000526020600020905b8154815290600101906020018083116103d857829003601f168201915b5050505050905086565b600061041a610412610100850185610ca2565b503560f81c90565b156104a55760008080808080808080806104386101008e018e610ca2565b8101906104459190610d95565b995099509950995099509950995099509950995061047683838f60000160208101906104719190610be9565b505050565b61048689898c8a8a8a8a8a610527565b6000610493818b8b610765565b9b505050505050505050505050610283565b600036816104d66104ba610100880188610ca2565b5060018181013592602180840135909301928301929091013590565b9194509250905060006104f56104ef6020890189610be9565b8561079d565b805490915060009061051b90829065ffffffffffff80821691600160301b900416610765565b98975050505050505050565b604051638118d20560e01b815260009081903090638118d205906105519086908c90600401610eb4565b6040805180830381865afa15801561056d573d6000803e3d6000fd5b505050506040513d601f19601f820116820180604052508101906105919190610ed6565b9150915046826001600160401b0316146105ed5760405162461bcd60e51b815260206004820152601c60248201527f5065726d697373696f6e733a20436861696e49644d69736d61746368000000006044820152606401610262565b60006105fd8b8b8a8a8a8a61083f565b905080821461065c5760405162461bcd60e51b815260206004820152602560248201527f5065726d697373696f6e733a205065726d697373696f6e4469676573744d69736044820152640dac2e8c6d60db1b6064820152608401610262565b6040805160c08101825265ffffffffffff808e1682528c811660208084019182526001600160a01b03808e16858701908152606086018e81528d8316608088015260a087018d90526000898152808552888120338252909452969092208551815494519351909216600160601b026bffffffffffffffffffffffff938616600160301b026bffffffffffffffffffffffff199095169290951691909117929092171691909117815591519091829160018201906107199082610f60565b5060808201516002820180546001600160a01b0319166001600160a01b0390921691909117905560a082015160038201906107549082610f60565b505050505050505050505050505050565b600060d08265ffffffffffff16901b60a08465ffffffffffff16901b8561078d576000610790565b60015b60ff161717949350505050565b6000818152602081815260408083206001600160a01b038087168552925290912080549091600160601b909104161515806107e4575060028101546001600160a01b031615155b6102835760405162461bcd60e51b815260206004820152602660248201527f5065726d697373696f6e733a205065726d697373696f6e206973206e6f7420656044820152651b98589b195960d21b6064820152608401610262565b600086868686868660405160200161085c9695949392919061101f565b6040516020818303038152906040528051906020012090509695505050505050565b65ffffffffffff811681146100fd57600080fd5b803561089d8161087e565b919050565b6001600160a01b03811681146100fd57600080fd5b60008083601f8401126108c957600080fd5b5081356001600160401b038111156108e057600080fd5b6020830191508360208285010111156108f857600080fd5b9250929050565b60008083601f84011261091157600080fd5b5081356001600160401b0381111561092857600080fd5b6020830191508360208260051b85010111156108f857600080fd5b600080600080600080600080600060c08a8c03121561096157600080fd5b893561096c8161087e565b985060208a013561097c8161087e565b975060408a013561098c816108a2565b965060608a01356001600160401b03808211156109a857600080fd5b6109b48d838e016108b7565b909850965060808c01359150808211156109cd57600080fd5b6109d98d838e016108ff565b909650945060a08c01359150808211156109f257600080fd5b506109ff8c828d016108ff565b915080935050809150509295985092959850929598565b600060208284031215610a2857600080fd5b5035919050565b60008060208385031215610a4257600080fd5b82356001600160401b03811115610a5857600080fd5b610a64858286016108b7565b90969095509350505050565b600080600060408486031215610a8557600080fd5b83356001600160401b03811115610a9b57600080fd5b610aa7868287016108b7565b909790965060209590950135949350505050565b60008060408385031215610ace57600080fd5b82356001600160401b03811115610ae457600080fd5b83016101208186031215610af757600080fd5b946020939093013593505050565b60008060408385031215610b1857600080fd5b823591506020830135610b2a816108a2565b809150509250929050565b60005b83811015610b50578181015183820152602001610b38565b50506000910152565b60008151808452610b71816020860160208601610b35565b601f01601f19169290920160200192915050565b65ffffffffffff8781168252861660208201526001600160a01b03858116604083015260c06060830181905260009190610bc190840187610b59565b818616608085015283810360a0850152610bdb8186610b59565b9a9950505050505050505050565b600060208284031215610bfb57600080fd5b8135610c06816108a2565b9392505050565b60008060008060608587031215610c2357600080fd5b8435610c2e816108a2565b93506020850135925060408501356001600160401b03811115610c5057600080fd5b610c5c878288016108b7565b95989497509550505050565b600181811c90821680610c7c57607f821691505b602082108103610c9c57634e487b7160e01b600052602260045260246000fd5b50919050565b6000808335601e19843603018112610cb957600080fd5b8301803591506001600160401b03821115610cd357600080fd5b6020019150368190038213156108f857600080fd5b803561089d816108a2565b634e487b7160e01b600052604160045260246000fd5b600082601f830112610d1a57600080fd5b81356001600160401b0380821115610d3457610d34610cf3565b604051601f8301601f19908116603f01168101908282118183101715610d5c57610d5c610cf3565b81604052838152866020858801011115610d7557600080fd5b836020870160208301376000602085830101528094505050505092915050565b6000806000806000806000806000806101408b8d031215610db557600080fd5b8a359950610dc560208c01610892565b9850610dd360408c01610892565b9750610de160608c01610ce8565b965060808b01356001600160401b0380821115610dfd57600080fd5b610e098e838f01610d09565b9750610e1760a08e01610ce8565b965060c08d0135915080821115610e2d57600080fd5b610e398e838f01610d09565b955060e08d0135915080821115610e4f57600080fd5b610e5b8e838f01610d09565b94506101008d0135915080821115610e7257600080fd5b610e7e8e838f01610d09565b93506101208d0135915080821115610e9557600080fd5b50610ea28d828e01610d09565b9150509295989b9194979a5092959850565b604081526000610ec76040830185610b59565b90508260208301529392505050565b60008060408385031215610ee957600080fd5b82516001600160401b0381168114610f0057600080fd5b6020939093015192949293505050565b601f821115610471576000816000526020600020601f850160051c81016020861015610f395750805b601f850160051c820191505b81811015610f5857828155600101610f45565b505050505050565b81516001600160401b03811115610f7957610f79610cf3565b610f8d81610f878454610c68565b84610f10565b602080601f831160018114610fc25760008415610faa5750858301515b600019600386901b1c1916600185901b178555610f58565b600085815260208120601f198616915b82811015610ff157888601518255948401946001909101908401610fd2565b508582101561100f5787850151600019600388901b60f8161c191681555b5050505050600190811b01905550565b600065ffffffffffff60d01b808960d01b168352808860d01b166006840152506bffffffffffffffffffffffff19808760601b16600c840152855161106b816020860160208a01610b35565b8084019050818660601b16602082015284519150611090826034830160208801610b35565b016034019897505050505050505056fea26469706673582212201309b2e5628a01e050bbe33b8f99d1601789a8470d18e1df0617fc6453ee621664736f6c63430008180033","linkReferences":{}},"methodIdentifiers":{"_parsePermissionFromPermissionEnableData(bytes,uint256)":"8118d205","enabledPermissions(bytes32,address)":"b8e1dc99","getModuleTypes()":"d6cc1aa4","getSingleSignerPermissionId(uint48,uint48,address,bytes,address[],bytes[])":"243d0df6","isInitialized(address)":"d60b347f","isModuleType(uint256)":"ecd05961","isValidSignatureWithSender(address,bytes32,bytes)":"f551e2ee","onInstall(bytes)":"6d61fe70","onUninstall(bytes)":"8a91b0e3","test(uint256)":"29e99f07","validateUserOp((address,uint256,bytes,bytes,bytes32,uint256,bytes32,bytes,bytes),bytes32)":"97003203"},"id":3}