{"abi":[{"type":"function","name":"getCallDataWithContext","inputs":[{"name":"permissionsContext","type":"bytes","internalType":"bytes"},{"name":"executions","type":"tuple[]","internalType":"struct IUserOpConstructor.executionObject[]","components":[{"name":"destination","type":"address","internalType":"address"},{"name":"value","type":"uint256","internalType":"uint256"},{"name":"callData","type":"bytes","internalType":"bytes"}]}],"outputs":[{"name":"callDataWithContext","type":"bytes","internalType":"bytes"}],"stateMutability":"view"},{"type":"function","name":"getNonceWithContext","inputs":[{"name":"permissionsContext","type":"bytes","internalType":"bytes"}],"outputs":[{"name":"","type":"uint256","internalType":"uint256"}],"stateMutability":"view"},{"type":"function","name":"getSignatureWithContext","inputs":[{"name":"permissionsContext","type":"bytes","internalType":"bytes"},{"name":"userOp","type":"tuple","internalType":"struct PackedUserOperation","components":[{"name":"sender","type":"address","internalType":"address"},{"name":"nonce","type":"uint256","internalType":"uint256"},{"name":"initCode","type":"bytes","internalType":"bytes"},{"name":"callData","type":"bytes","internalType":"bytes"},{"name":"accountGasLimits","type":"bytes32","internalType":"bytes32"},{"name":"preVerificationGas","type":"uint256","internalType":"uint256"},{"name":"gasFees","type":"bytes32","internalType":"bytes32"},{"name":"paymasterAndData","type":"bytes","internalType":"bytes"},{"name":"signature","type":"bytes","internalType":"bytes"}]},{"name":"rawSignature","type":"bytes","internalType":"bytes"}],"outputs":[{"name":"signature","type":"bytes","internalType":"bytes"}],"stateMutability":"nonpayable"}],"bytecode":{"object":"0x608060405234801561001057600080fd5b50610446806100206000396000f3fe608060405234801561001057600080fd5b50600436106100415760003560e01c806326f3b94c146100465780632c5a2ef41461007557806357a25f9314610099575b600080fd5b61005f610054366004610122565b606095945050505050565b60405161006c91906101c0565b60405180910390f35b61008b61008336600461020f565b600092915050565b60405190815260200161006c565b61005f6100a7366004610251565b6060848484846040516020016100c09493929190610314565b6040516020818303038152906040529050949350505050565b60008083601f8401126100eb57600080fd5b50813567ffffffffffffffff81111561010357600080fd5b60208301915083602082850101111561011b57600080fd5b9250929050565b60008060008060006060868803121561013a57600080fd5b853567ffffffffffffffff8082111561015257600080fd5b61015e89838a016100d9565b9097509550602088013591508082111561017757600080fd5b90870190610120828a03121561018c57600080fd5b909350604087013590808211156101a257600080fd5b506101af888289016100d9565b969995985093965092949392505050565b60006020808352835180602085015260005b818110156101ee578581018301518582016040015282016101d2565b506000604082860101526040601f19601f8301168501019250505092915050565b6000806020838503121561022257600080fd5b823567ffffffffffffffff81111561023957600080fd5b610245858286016100d9565b90969095509350505050565b6000806000806040858703121561026757600080fd5b843567ffffffffffffffff8082111561027f57600080fd5b61028b888389016100d9565b909650945060208701359150808211156102a457600080fd5b818701915087601f8301126102b857600080fd5b8135818111156102c757600080fd5b8860208260051b85010111156102dc57600080fd5b95989497505060200194505050565b81835281816020850137506000828201602090810191909152601f909101601f19169091010190565b600060408083526103296040840187896102eb565b602084820381860152818683528183019050818760051b8401018860005b898110156103ff57858303601f190184528135368c9003605e1901811261036d57600080fd5b8b01606081356001600160a01b03811680821461038957600080fd5b86525081870135878601528882013536839003601e190181126103ab57600080fd5b90910186810191903567ffffffffffffffff8111156103c957600080fd5b8036038313156103d857600080fd5b818a8701526103ea82870182856102eb565b96880196955050509185019150600101610347565b50909b9a505050505050505050505056fea264697066735822122014b62022d4e2d180a6b2fabe5fe44c4a93afa4d514ff24c4c624359dc743b48064736f6c63430008180033","linkReferences":{}},"methodIdentifiers":{"getCallDataWithContext(bytes,(address,uint256,bytes)[])":"57a25f93","getNonceWithContext(bytes)":"2c5a2ef4","getSignatureWithContext(bytes,(address,uint256,bytes,bytes,bytes32,uint256,bytes32,bytes,bytes),bytes)":"26f3b94c"},"id":1}